:020000040800F2
:10000000F80B0020B5020008A1460008953A000848
:100010009D4600083D0E00088150000800000000C9
:100020000000000000000000000000006D49000812
:10003000710E000800000000A54600087149000884
:10004000CF020008CF020008CF020008CF0200084C
:10005000CF020008CF020008CF020008CF0200083C
:10006000CF020008CF020008CF020008CF0200082C
:10007000CF020008CF020008CF020008CF0200081C
:10008000CF020008CF020008CF020008CF0200080C
:10009000CF020008CF020008CF020008CF020008FC
:1000A000CF020008CF020008CF020008CF020008EC
:1000B000CF020008CF020008CF020008CF020008DC
:1000C000CF020008CF020008CF020008CF020008CC
:1000D000CF02000875500008CF020008CF020008C8
:1000E000CF020008CF020008CF020008CF020008AC
:1000F000CF020008CF020008CF020008CF0200089C
:10010000CF020008CF020008CF020008CF0200088B
:10011000CF020008CF020008CF020008CF0200087B
:10012000CF020008410E00084D0E0008CF02000863
:10013000CF0200080000000000000000CF0200080D
:10014000CF020008CF020008CF020008CF0200084B
:10015000CF020008590E0008650E0008CF02000803
:10016000CF020008CF020008CF020008CF0200082B
:10017000CF020008CF020008CF02000800000000F4
:1001800000000000CF020008000000000000000096
:10019000CF0200080000000000000000CF020008AD
:1001A000000000000000000000000000CF02000876
:1001B000CF020008CF020008CF020008CF020008DB
:1001C000CF02000800F002F800F065F814A696E8E7
:1001D000000CB244B344DA4501D100F05CF8BAE84F
:1001E0000F000FA696E83000A5EB040504EB060708
:1001F000AAEB0704A7F101074FEA15154FEA3414DB
:10020000A4F10104AC4201D300F045F813F0010F52
:1002100018BFFB1A43F0010300F001F8DBE71847B1
:100220006463000084630000103A24BF78C878C17A
:10023000FAD8520724BF30C830C144BF04680C60EC
:1002400070470000704700000023002400250026AE
:10025000103A28BF78C1FBD8520728BF30C148BF29
:100260000B607047662906F00981642900F0DA8086
:10027000752900F0D780002070471FB506F0F1F80F
:1002800000F066FC04000020002105F025FFE0607E
:100290001FBD10B510BD00F05BFD1146FFF7EDFF6F
:1002A00004F0F2FE00F079FD03B4FFF7F2FF03BCA7
:1002B00000F0BCFD0948804709480047FEE7FEE71B
:1002C000FEE7FEE7FEE7FEE7FEE7FEE7FEE7FEE706
:1002D00004480549054A064B704700002D4A0008AE
:1002E000C5010008F8050020F80B0020F8070020E1
:1002F000F807002053EA020C00F069802DE9F04B6A
:100300004FF00006002B1FBFB3FA83F503FA05F484
:1003100024FA05F65E4012BF1643B2FA82F502FADD
:1003200005F4C5F120051EBF22FA05FC44EA0C04C1
:10033000203556EA044C4FEA144418BF641C4FF0B1
:1003400000084FF00009904271EB030C39D30029EB
:1003500019BFB1FA81F701FA07F6B0FA80F700FA8F
:1003600007F6C7F120071EBF20FA07FC46EA0C0675
:100370002037B6FBF4FCA7EB0507103F07F01F0B77
:10038000CBF120062CFA06F60CFA0BFB44BFB34661
:100390000026202FA4BF5E464FF0000B5BEA060C40
:1003A00008BF4FF0010B19EB0B0948EB0608ABFB3C
:1003B000027C06FB02CC0BFB03CCC01B71EB0C01D7
:1003C000C1E70B46024641464846BDE8F08B13B5EF
:1003D000084318BF4FF0FF300146AFF30080BDE87F
:1003E0001C4070470FB41CB50C0007AA009007D042
:1003F0004142A14202D32044401E01E04FF0FF30B1
:10040000074B7B4469460190069800F086FB00216B
:10041000002C01D0009A11701CBC5DF814FB000088
:100420003B0700002DE9F0410646002410687529BD
:10043000314616A510D0AFF30080002802DA404202
:1004400013A507E031688A0701D512A502E0490724
:1004500004D511A5012401E0AFF3008000210A2298
:1004600006F1240709E0B0FBF2FCB0FBF2F302FB5B
:100470001C00303078541846491C0028F3D123461C
:100480002A463046BDE8F04100F0DAB8000000002E
:100490002D0000002B000000200000002DE9F04797
:1004A0004FF0000A89460446C0F820A02046E168C3
:1004B0008847002876D0252806D0D4E90121904726
:1004C000206A401C2062F1E7E16820460026884748
:1004D000C4F81CA005460027C4F818A02A2D09D08E
:1004E000284605F0F1FD38B304EB8708303DC8F825
:1004F000185019E059F8041B204604EB870291615B
:10050000E1688847012F054618D1E069002820DA04
:1005100026F020061DE0D8F8180000EB800005EB5F
:1005200040003038C8F818002046E1688847054682
:1005300005F0CAFD0028EED1012F0AD02E2D08D1DA
:100540002046E16888477F1C0546022F46F02006BA
:10055000C4DBA069002803DA404246F00106A0612E
:10056000F00701D026F010066C2D0AD0682D08D0B7
:100570004C2D39D06A2D35D0742D35D07A2D33D00D
:1005800016E0E1682F4620468847B84205460AD162
:100590006C2F27D04FF48060E168064320468847DF
:1005A000054605E027E06C2F1AD04FF48070064313
:1005B0000DB3A5F14100192802D8203546F4006694
:1005C0004A462946204626604E46FFF74BFE80B13C
:1005D00001280BD0F61D26F0070000F1080965E799
:1005E0004020E4E78020D7E70020D5E706F10409A2
:1005F0005CE7284661E7206ABDE8F08710B5431C38
:1006000002E010F8011B71B18107FAD14FF00132FD
:1006100002C88C1A8C4314EAC211F9D0C01A0A0617
:1006200003D0C01E10BDC01A10BD0A0401D0801E28
:1006300010BD0902FCD0401E10BD704770477047C6
:100640002DE9F0470D4699469246044600F12408EC
:100650000168880604D5E06921F01001216000E0FE
:100660000120A84201DD471B00E00027A1697A199B
:1006700002EB0900081AA0612078C00602D42046C7
:10068000AFF30080002608E0D4E901211AF8060043
:100690009047206A401C761C20624E45F4DB20788F
:1006A000C0060AD52046AFF3008006E0D4E9012158
:1006B00030209047206A401C2062381EA7F10107B5
:1006C000F4DC07E0D4E9012118F805009047206A1E
:1006D000401C2062281EA5F10105F3DC2046AFF383
:1006E00000802078000602D50220BDE8F0870120B6
:1006F000FBE72DE9FF4F0C461E464FF0FF378BB04E
:10070000D2E90001DDF860800A908A46C1F30A55FB
:1007100005B93D46002108464FF00000BAF1000F30
:1007200000F4400005DA00EB80004FF4400101EADC
:1007300050004FEA9059B9F1010F00DDB9460A980F
:1007400050EA4A000ED044F61050A5F2FF3545435A
:100750002F14B8F1000F1ED07542291E1EDDC9F1FD
:1007600000021CE0B8F1010F4FF0000001D0302171
:1007700003E0F24305E02154401CB042FBDB30466D
:100780000022002121540B99C1F80880C1E9002002
:100790000FB0BDE8F08FBD1B6D1CDEE74A4600DAE6
:1007A000694206A800F05EFA06AB93E8070003ABC7
:1007B00083E8070050460A9905F0A6F88DE807007F
:1007C000A0F500501F3800900398002D0ADD42F27A
:1007D0001F014A460844002303A90390684605F018
:1007E0000FFB09E0A0F500504A461F38002303A97B
:1007F0000390684605F019FB8DE807000004000C23
:1008000003D04FF0FF30410800E01046B8F1000F70
:1008100003D00022009215461EE0751E05D400F09C
:100820009BF9303262556D1EF9D5B346012208435B
:1008300002D000227F1C04E02078302801D1002261
:100840007F1E002A099784D01DE0112D07DA00F0E1
:1008500083F9303262556D1C50EA0102F5D108432C
:1008600002D00098C8B10EE00021681E05E0235CAC
:10087000625C63542254401E491C8142F7DBAB4644
:10088000A81B401E0990002004F80B000B98099A41
:10089000C0F80880C0E9002B7AE711264FF0000865
:1008A00057E72DE9F04F88460446D21D22F0070194
:1008B00091B0D1E90001CDE90A0105F0EDFB024656
:1008C0000B98C00F01D02D2007E02068810701D5CB
:1008D0002B2002E0202101EAC000032A099001D068
:1008E000072A05DB03464146204600F07BF90BE171
:1008F0002078800601D5E06900E00620B8F1650F98
:10090000814606D0B8F1660F18D0B8F1670F70D1E4
:1009100031E00020B9F1110F009001DB112301E05B
:1009200009F101030AAA01A90CA8FFF7E2FEDDE91B
:100930000C70002609F10105834647E001204B4673
:1009400000904FF000470AAA01A90CA8FFF7D1FEBA
:10095000DDE90DB00C995D46002610B909F10100E2
:100960000D18B9EB050003D4C0F1FF3609F10105FC
:10097000A5EB09002BE0B9F1010F01DA4FF00109F5
:100980000020B9F1110F0090484601DD112300E06D
:1009900003460AAA01A90CA8FFF7ABFEDDE90C701B
:1009A0004D4600268346207800070AD4AB4500DA7E
:1009B0005D4601A8012D04DD411911F8011C302903
:1009C00007D04F4502DA17F1040F04DA01208246FE
:1009D0000FE06D1EEEE7002F02DCED1B3E4403E04E
:1009E000781CA84200DD7D1CB81B00F1010A4FF005
:1009F00000472078000703D4AA4501DB4FF0FF3AF7
:100A00000021B7F1004F0DF143088DF8431024D0B9
:100A100002202B23002F01DA7F422D230A21021E00
:100A2000A0F1010000DC5FB197FBF1FC97FBF1F254
:100A300001FB1C7C17460CF1300C08F801CDEEE7E9
:100A4000A8F1010003702188090501D5452100E0C6
:100A50006521A0F1010800F8011C09980FA9A1EB7C
:100A60000807FF1D00B10120411901EBEA70A169DF
:100A70003844081A401EA0612078C00602D42046DF
:100A8000AFF30080099828B1D4E901219047206A8A
:100A9000401C20622078C00622D52046AFF300809B
:100AA0001EE0002E04DBB34502DD01A8805D00E0FE
:100AB0003020D4E901219047206A401C2062761C36
:100AC000AAF101005FEA000A0AD100F041F8C0680B
:100AD0000168405CD4E901219047206A401C2062F3
:100AE000281EA5F10105DCDC07E0D4E9012118F896
:100AF000010B9047206A401C2062381EA7F10107B5
:100B0000F3DC2046AFF30080032011B041E6000083
:100B100001694A1C02610878704700B58FB0CDE9C1
:100B200001310021059105497944CDE903101146B1
:100B30006846FFF7B3FC0FB000BD0000E5FFFFFF04
:100B4000D1E900239A4202D2531C0B601070704707
:100B5000004870474000002030B5B0F10A0271F142
:100B600000034FEA900E4EEA817EB0EB0E0061EB7F
:100B700091014FEA101E4EEA017E10EB0E0041EB90
:100B800011114FEA102E4EEA016E10EB0E0041EBF0
:100B900011214FEA104E4EEA014E10EB0E0041EBD0
:100BA0001141401841F100014FEAD00040EA417084
:100BB0004FEAD1014FEA810444EA907410EB8005BA
:100BC00044EB01046D1944EB0404521BA3414FF0A4
:100BD000000348BF0A3200D530BD401C41F100017E
:100BE00030BD00002DE9F0411F4604460326016890
:100BF000072A01F4006004DB08B116A505E016A57C
:100C000003E008B115A500E015A521F01000206053
:100C1000A069C01EA0610FB1401EA0612046AFF3C5
:100C200000804FB1D4E9012138469047206A401C2A
:100C30002062C01C206206E0206AFAE7D4E90121A4
:100C400015F8010B9047761EF8D22046AFF30080CE
:100C5000BDE8F0814E414E006E616E00494E460087
:100C6000696E66002DE9F047814616468AB0354820
:100C700078440DC88DE80D0032487844801C03ACE0
:100C80000DC884E80D0041F69B300844372190FBE5
:100C9000F1F290FBF1F5A5F1800501FB12041B3C7C
:100CA00002D56442012000E00020DFF898A08046D1
:100CB0000027FA44AAF1BE0A0EE0E0070AD0324645
:100CC000684607EB470101230AEB810105F0ADF807
:100CD0008DE8070064107F1C002CEED1194F7F4473
:100CE000AE3F19E0E80715D007EB04100DF1180A24
:100CF00090E80E008AE80E00C068F04201D1981911
:100D000008903246012306A903A805F08EF803AB2C
:100D100083E807006D10641C002DE3D14FF0010340
:100D200032466946B8F1000F03A802D005F068F812
:100D300001E005F07AF8C9E90001C9F808200AB015
:100D4000BDE8F08788580000004870472000002068
:100D50007546FFF7F9FFAE4605006946534620F099
:100D60000700854618B020B5FFF7B2FABDE820406D
:100D70004FF000064FF000074FF000084FF0000B57
:100D8000AC46ACE8C009ACE8C009ACE8C009ACE8C6
:100D9000C00921F007018D46704710B50446AFF336
:100DA00000802046BDE81040FFF77EBA000000003A
:100DB00030B44FF0013C50F8042B51F8043BCCFA0E
:100DC00052F4D51A20D1FCB950F8042B51F8043B49
:100DD000CCFA52F4D51A17D1B4B950F8042B51F803
:100DE000043BCCFA52F4D51A0ED16CB950F8042B4E
:100DF00051F8043BCCFA52F4D51A05D1002CDAD0C4
:100E000030BC4FF00000704729BAB1FA81F111F0FF
:100E10001801D1F120008440F2D1CA40CB4012F039
:100E2000FF0213F0FF0330BCD01A704701491820AD
:100E3000ABBEFEE72600020070470000FEE70000A0
:100E400040F2DC10C2F2000000F03EBB40F21C1089
:100E5000C2F2000000F038BB40F23C20C2F20000B9
:100E600000F032BB40F27C10C2F2000000F02CBB5C
:100E70007047000072B600BFFEE7000070B581B099
:100E80000022009290F83C20012A03D1022108465A
:100E900001B070BDD1F800E00122BEF10A0F1FFAC7
:100EA0008EFC80F83C2009D34FEA4C02036812FA0A
:100EB0008EF2A2F11E0403F10C0204E003680EEBB3
:100EC0004E0403F1100207251668A54026EA050521
:100ED00015608D68166805FA04F434431460496897
:100EE000062907D801EB81014A1F194651F8345FE2
:100EF0000FE000BF0C2901EB810105D8A1F123020D
:100F0000194651F8305F04E0A1F14102194651F849
:100F10002C5F1F24944025EA04040C600CFA02F2B2
:100F20000C6842F2043CC4F2010C2243ACF541745B
:100F3000A3420A6006D0002180F83C10084601B0A8
:100F400070BD00BF1221BEF1110FC1F2000118BF28
:100F50008E453BD1DCF800208E4522F48002CCF88F
:100F60000020DCF8002042F40002CCF80020E2D19E
:100F700040F21801C2F2000109684DF68362C4F222
:100F80001B32A1FB0212910C01EB8101490000917F
:100F900000990029CFD000BF009901390091009934
:100FA0000029C8D000990139009100990029C2D0C8
:100FB00000990139009100990029BCD000990139AC
:100FC000009100990029E7D1B5E700BFBEF1120FEB
:100FD000B1D1DCF8001021F40001CCF80010DCF8ED
:100FE000001041F48001CCF80010A4E70068C06C48
:100FF00070470000002804BF0120704710B5044668
:10100000006C00283ED0206CC00645D4206C41F214
:1010100002118843023042F204312064C4F201011B
:10102000086820F4403008600A6894E809101A4300
:10103000D4F810E00A604168012321F48071416016
:101040004168C0F6007341EA0E214160416821F019
:1010500040714160416841EA0C014160816821F4BE
:1010600000618160E168826811438160A16A8268E1
:10107000994222F070628260826813D122F040515E
:1010800019E000BF204600F065F80020606484F895
:101090003C00206CC006B9D50120002184F83C102A
:1010A00010BD00BF11438160816821F04051816013
:1010B000E16A826811438160816821F002018160E8
:1010C0008168227E94F8203041EA420181604168C3
:1010D00083B141F40061416041684EF2000221F4A5
:1010E00060414160616ACFF6FF72436802EB4131B3
:1010F000194301E021F400614160C16A40F2000C33
:1011000021F47001C162E2696169CFF6F07CC36AC3
:101110000CEB02521A43C262826822F400728260AF
:1011200094F83020836843EA42228260826822F485
:1011300080628260826842EA81218160002060646E
:10114000216C012262F301012164002184F83C102A
:1011500010BD000080B586B042F200010068C4F204
:101160000101002288420592049201D006B080BDA0
:1011700043F630000092C4F20200436943F48073E6
:101180004361436903F480730093009B00920368FA
:1011900043F001030360006800F001000090009834
:1011A000042001900320CDE9020201F5604001A96D
:1011B00000F082FB06B080BD70B5044600680D46A5
:1011C0008268520544BF80685FEAC05038D400F09E
:1011D00049FC21680A68920749D40646681C3CD03D
:1011E000DDB90868800721D5086880073FD4086802
:1011F00080071BD50868800739D40868800715D593
:101200000868800733D4086880070FD5086880070E
:10121000E7D52CE00868800729D400F023FC801B68
:101220002168A842F6D908688007F3D4206C40F002
:1012300004002064002084F83C00032070BD00BF3F
:10124000206C40F020002064002084F83C00012045
:1012500070BD00BF0868800709D40868800706D4FD
:10126000086880075CBF08685FEA8070F2D56FF09D
:1012700012000860206C40F400702064886810F050
:10128000405F01D0002070BD207E0028FAD1C86ADE
:1012900010F4700F02D088684005F3D4206C20F45D
:1012A00080702064206CC004ECD4206C40F00100FD
:1012B0002064002070BD000010B581B000210091B5
:1012C00090F83C10012903D1022001B010BD00BFED
:1012D0000468012180F83C10214651F8083FDB07E3
:1012E00029D10B684DF6836243F001030B6040F295
:1012F0001803C2F200031B68C4F21B32A3FB0223D3
:101300009A0C02EB42020092009AA2B1009A013AB2
:101310000092009A7AB1009A013A0092009A52B172
:10132000009A013A0092009A2AB1009A013A00927A
:10133000009A002AEAD10A68036CD2070CD143F064
:101340001001016400F1440101200A6810430860A3
:10135000002001B010BD00BF40F2017223EA02027A
:1013600002F5807202646268520504D5026C0123A2
:1013700063F30D320264026C4FF0000E0023D204BE
:1013800044BF426C22F0060342F2043C436480F8FE
:101390003CE06FF02200C4F2010C2060DCF8000099
:1013A000C0060DD0ACF5417084422BD14FF60450ED
:1013B000CFF6FF705CF8000010F0405F22D125E00E
:1013C00042F20000C4F20100844217D042F2002031
:1013D000C4F2010084420DD042F20010C4F20100B8
:1013E00084420FD1DCF80000C00607D0ACF5827053
:1013F000844207D1DCF80000C00603D4086810F06E
:10140000405F03D0002001B010BD00BF4FF080400E
:101410009BE7000070B5866D044600F023FB94F84E
:101420003510022928D105462068216C026822F077
:1014300016020260426922F08002426109B9A16C81
:1014400019B1016821F008010160016821F0010172
:10145000016000BF20680068C00715D000F002FBE3
:10146000401B0628F6D320206065032084F8350051
:10147000002184F8341070BD8020606501200021B7
:1014800084F8341070BD00BFE06D3F2101FA00F018
:10149000B060012084F835000020002184F8341069
:1014A00070BD000090F83510022909D1052180F89F
:1014B00035100068016821F00101016000207047CB
:1014C0008021416501207047F0B581B004460020BD
:1014D000009040F21800C2F200000268D4E91660E1
:1014E00048F2B51337680821C1F64E3381403942BE
:1014F000A2FB03250CD0226813685B0708D513688C
:1015000023F004031360B160616D41F00101616576
:1015100001218140394208D022685269120604D55F
:10152000B160616D41F00201616504218140394281
:1015300008D022681268920704D5B160616D41F04D
:101540000401616510218140394217D0206802688A
:10155000120713D5B16002680168520308D4C905A7
:1015600008D4016821F008010160216C21B905E06F
:1015700008033FD4216C09B120468847E16D202043
:1015800000FA01F23A4241D020680368DB063DD5FB
:10159000B26094F835300268052B1BD122F0160298
:1015A0000260426922F080024261226C0AB9A26C98
:1015B0001AB1026822F0080202603F208840B06041
:1015C000012084F83500216D0020002984F83400C2
:1015D00052D157E00168520310D4C90512D40168F2
:1015E00021F010010160012084F83500002084F80A
:1015F000340007E0A16C0029BED1BFE7080301D485
:10160000616C00E0E16B09B120468847606DC8B3AA
:10161000606DC0072ED0052084F835002068A90A27
:10162000026822F001020260009A01328A420092AE
:101630001AD80268D20717D0009A01328A42009263
:1016400012D80268D2070FD0009A01328A42009263
:101650000AD80268D20707D0009A01328A42009263
:1016600002D80268D207DFD1012084F835000020BB
:1016700084F83400E16C29B1204601B0BDE8F040A7
:10168000084700BF01B0F0BD2DE9F041044600F06D
:10169000E9F9ECB10546022084F835000020216804
:1016A00084F83400086820F00100086021680868A8
:1016B000C00711D000F0D6F9401B0528F6D9032544
:1016C00020230320636584F83550BDE8F08100BF16
:1016D0000120BDE8F08100BF086848F23F02CFF268
:1016E0001002D4E9013500EA020C04F10C0898E874
:1016F000C10143EA0C032B431843D4E9072E3043BE
:1017000038431043626A40EA0E00042A40EA0803A4
:101710001CD1206BD4E90A2E40EA0E001843086061
:101720004869BEF1000F20F0030040EA020040F0DB
:10173000040C11D0B8F5005F36D0B8F1000F45D1D8
:10174000022A46D0012A3BD032B942E00B604869F8
:1017500020F0070040EA020C01F0F8004AF6AB2244
:101760001038CAF6AA22A0FB02231A0946F22C530B
:10177000C1F814C0C0F600039A5C40F2FF335F2842
:101780004FF03F0021EA030100FA02F088BF043164
:10179000C4E916128860002301250020636584F8DF
:1017A0003550BDE8F08100BF032AD5D8012540237C
:1017B0000120DFE802F0030E030500BF82E700BF4F
:1017C000AEF1C070B0FA80F0400904E0032A04D3FF
:1017D000C2D1CEF300600028BED0012540230120F5
:1017E000636584F83550BDE8F081000090F834C09E
:1017F000BCF1010F04BF0220704770B54FF0010C1F
:1018000080F834C0D0F858E090F835C0BCF1010F32
:1018100038D14FF0020C80F835C04FF0000CC0F802
:1018200054C0D0F800C08468056CC06DDCF800605E
:10183000402C26F48026CCF80060CCF804300B460F
:1018400004BF13460A463F2101FA00F0CCF80830E5
:10185000CCF80C20CEF80800DCF8000040F01600B0
:10186000CCF800002DB1DCF8000040F00800CCF806
:101870000000DCF8000040F00100CCF8000000207F
:1018800070BD00BF002180F83410022070BD000040
:10189000B0B5044600F0E6F8054640F21000C2F28A
:1018A00000000078611C18BF044400BF00F0DAF8A3
:1018B000401BA042FAD3B0BD2DE9F04F82B000F139
:1018C0003E4707F1FF77860546EA972741F600066F
:1018D000C4F20206072243F6004EB04208BF0622B9
:1018E000C4F2010E062F38BF3A46002600274FF0FB
:1018F0000008009209E000BF08F101080237B8F1C2
:10190000100F06F1040600F0A3800D68012202FA10
:1019100008F415EA0409EFD0D1F804B003220BF063
:10192000030CACF10105BA40012D6FEA020A0FD891
:101930008268CD6802EA0A02BD402A43826042689A
:10194000A243CBF3001404FA08F42243426005E0FA
:10195000BCF1030F02D14FF0030C1EE0C2688C688B
:1019600002EA0A02BC402243BCF1020FC26014D159
:101970006FF0030202EA58020244D2F820C006F0D7
:101980001C040F230D69A3402CEA0303A5402B433D
:101990001362D1F804B00BF0030C02680CFA07F3E1
:1019A00002EA0A021A431BF4403F0260A4D000225C
:1019B00043F644030192C4F202031A684FF6084C3E
:1019C00042F480421A601A68CFF6FF7C02F480422B
:1019D0000192019A28F00302724452F80C3006F08A
:1019E0000C050F24AC40A343009C04FA05F52B43DF
:1019F00042F80C30DEF808204B6842EA090543F64D
:101A00000C4CDC0258BF22EA0905CEF80850C4F29B
:101A1000010CDCF800209C0242EA090558BF22EACA
:101A20000905CCF80050DEF804209C0342EA0905C1
:101A300058BF22EA0905CEF80450DEF80020DB0387
:101A400042EA090558BF22EA0905CEF8005053E7DB
:101A500002B0BDE8F08F0000002A08BF09048161D0
:101A60007047000040F2F450C2F200000068704776
:101A7000002804BF01207047F0B581B0044690F8FB
:101A80003D0028B9002084F83C00204600F07CFA94
:101A9000242084F83D002068016821F001010160E4
:101AA000016841F400410160016821F400410160D6
:101AB00000F04AFC636848F2A16CC0F2010C40F6E9
:101AC0000011C0F23D0163453CBF48F28041C0F2C5
:101AD0001E01884202D2012001B0F0BD4DF68361A3
:101AE000C4F21B31A0FB01122168970CD1F804E06D
:101AF0004FF496762EF03F0545EA92454D607743C8
:101B000048F638160D6AC0F24106A7FB067625F0A6
:101B10003F07634538BF960C721C3A430A62CA6994
:101B200048F2A0664CF6FF77C0F20106B34222EA03
:101B300007020BD801385B00B0FBF3F001306FF304
:101B40001F30042898BF04201BE000BFA76801389D
:101B500057B119277B43B0FBF3F001306FF31F300F
:101B600070B100F5804007E003EB4303B0FBF3F0F6
:101B700001306FF31F3018B100F5004001E000BFE5
:101B800001201043C8610868D4E9072320F0C00091
:101B9000104318430860886848F2FF3204F10C07CC
:101BA00090438CCF18431043A6698860C86820F022
:101BB000FF0038433043C860086840F00100086007
:101BC00000202021206484F83D10206384F83E002A
:101BD00001B0F0BD2DE9F04784B0994616460F4696
:101BE0000446FFF73FFF94F83D10202927D1054612
:101BF000206800BF816989071CD5FFF733FF411BAF
:101C000020681A29F6D381698907F3D5002020219D
:101C1000206384F83D1084F83E00206C04F13C0AF7
:101C200040F020002064022000218AF8001004B057
:101C3000BDE8F087A2461AF83C1F012904D1022012
:101C400004B0BDE8F08700BF01228AF800200368D5
:101C5000DDE90D180C9ADB0703D1036843F001039B
:101C60000360036823F400630360222084F83D00CE
:101C7000402084F83E000020206462626185608D0F
:101C8000394620850020CFF6FF70E06220463246BC
:101C90004B46CDE9008501F0FFFE18B1012004B0EC
:101CA000BDE8F087208DA8B102282BD0012835D1BE
:101CB00021680A6822F480620A60002203924A695D
:101CC00003928A690392039A0A6842F400720A60D6
:101CD0002CE000BF002003902068416903918169D6
:101CE00003910399016841F400710160202084F898
:101CF0003D00002084F83E0000218AF8001004B066
:101D0000BDE8F08721680A6822F480620A600A68E8
:101D100042F400620A600022039202E00021039173
:101D200021684A6903928969039103990427C0F2E3
:101D300001070CE010690870606A218D0130606253
:101D4000481E2085618D013961850104CED080B2A5
:101D500003280FD802284AD001282DD12046414619
:101D60002A4602F037F9002898D12068616A006994
:101D7000E1E700BF204641462A4602F02BF9002841
:101D80007FF48CAF2068616A00690870606A22681D
:101D9000411C208D616201382085638D013B638584
:101DA00053695B07D1D580B20328C3D1106820F4F2
:101DB00080601060BEE700BF2046394600224346DF
:101DC000009501F0B5FF00287FF468AF2068616AD4
:101DD000026822F48062026000690870606A218DE6
:101DE00001306062481E2085608D01386085204684
:101DF000394600224346009501F09AFF00287FF4FF
:101E00004DAF2068616A026842F4007202600069A6
:101E10000870606A2268411C6162218D0139218548
:101E2000618D013961851169417085E72DE9F043C4
:101E300083B0994616460F460446FFF713FE94F802
:101E40003D10202924D10546206800BF81698907FB
:101E50001AD5FFF707FE411B20681A29F6D38169BE
:101E60008907F3D500202021206384F83D1084F8F1
:101E70003E00216C41F02001216484F83C000220E6
:101E800003B0BDE8F08300BF94F83C10012903D1F2
:101E9000022003B0BDE8F083012284F83C200368EF
:101EA000DDE90B180A9ADB0703D1036843F001034D
:101EB0000360036823F400630360212084F83D007D
:101EC000402084F83E000020206462626185608DBD
:101ED000394620850020CFF6FF70E062204632466A
:101EE0004B46CDE9008501F061FE18B1012003B039
:101EF000BDE8F083208D98B9204641462A4601F07E
:101F0000B9FE88B3206C0428F0D12068016841F440
:101F100000710160012003B0BDE8F0830004EBD044
:101F2000204641462A4602F09DF80028EAD1616A1F
:101F30002268084610F8013B1361238D6062581E29
:101F40002085678D013F678557697F07E6D50704C0
:101F5000E4D048781061881C6062981E2085618DED
:101F600001396185DAE700BF2068016841F400713A
:101F70000160202084F83D00002084F83E0084F8B1
:101F80003C0003B0BDE8F083016845F20040C4F2B4
:101F90000000814218BF7047B0B586B0002443F6F8
:101FA00030050194C4F20205296800F5D83041F0EB
:101FB00002012960296801F00201019101994FF4A1
:101FC000407101911221CDE90214032104910421F1
:101FD000059101A9FFF770FC0094286940F40010F6
:101FE0002861286900F400100090009806B0BDE850
:101FF000B040704740F2100040F2F451C2F20000CD
:10200000C2F2000100780A681044086070470000BE
:1020100080B543F60040C4F20200016841F400714B
:102020000160016841F480610160016841F48071E0
:102030000160032000F088F8002000F005F800F0AF
:1020400027F8002080BD000070B540F21006C2F2F3
:10205000000640F218013278C2F200014FF47A73A0
:102060000968B3FBF2F20446B1FBF2F1084600F056
:10207000D5FB0F2C4FF0010508D838B94FF0FF30D1
:1020800021460022002500F033F87460284670BD18
:1020900082B0002043F640010190C4F202014A6878
:1020A00042F480424A604A6802F480420192019AF6
:1020B0000090086840F080500860086800F0805088
:1020C00000900098072002B000F03EB8002848BFFA
:1020D000704700F01F01012202FA01F11C2202EAFE
:1020E000D0004EF20012CEF2000281507047000084
:1020F00010B54EF60C5CCEF2000CDCF80030C3F3E9
:10210000022E8EF00704042C28BF0424BEF1030322
:102110004FF0FF3E0EFA04F438BF0023A14399406C
:102120000EFA03F39A43114300F00F0200F16043EB
:102130000901043A03F564436244002848BF02F1F0
:102140000C03197010BD00004EF60C51CEF20001C8
:102150000A684FF6FF031A4060F30A2242F08060DB
:1021600040F0FD700860704770B582B000200190AB
:1021700043F64000C4F202000168402641F080515D
:1021800001600068C4F20E2600F0805001900198B2
:1021900047F204050120C4F200053060FFF762FC3D
:1021A000044600BF2868C00306D4FFF75BFC001B91
:1021B000B0F57A7FF6D90EE001207060FFF752FC8F
:1021C000044600BF2868800308D4FFF74BFC001BBF
:1021D000B0F57A7FF6D9032002B070BD002002B0BE
:1021E00070BD0000002804BF012070472DE9F041B8
:1021F00043F60808C4F202080446D8F8F8030D466E
:1022000000F00F00884207D288F8F853D8F8F80396
:1022100000F00F00A84277D12068810717D5410749
:1022200005D5D8F8001041F4E051C8F800100107B6
:1022300005D5D8F8001041F46041C8F80010D8F86E
:102240000010A26821F0F0011143C8F80010C00787
:1022500040D1D8F8F80300F00F00A84207D988F859
:10226000F853D8F8F80300F00F00A8424CD12068CA
:10227000410707D5D8F80010E26821F4E051114376
:10228000C8F80010000708D5D8F80000216920F42C
:10229000604040EAC100C8F8000000F07DF8D8F8BE
:1022A000001046F21452C1F30311C0F60002515C53
:1022B00040F2180220FA01F140F21400C2F20000CC
:1022C0000068C2F200021160FFF7BEFE0020BDE808
:1022D000F08100BF6068811E022907D258F8081CEF
:1022E00089015CBF0120BDE8F08111E0012807D120
:1022F00058F8081C89035CBF0120BDE8F08107E0A5
:1023000058F8081C890703D40120BDE8F08100BFFC
:10231000D8F8001021F003010843C8F80000FFF7C7
:10232000A1FB064641F28837D8F80000616800F04A
:102330000C00B0EB810F8CD0FFF794FB801BB842F0
:10234000F2D90320BDE8F08140F2180043F60801FD
:10235000C2F20000C4F202010068096846F2245289
:10236000C1F38221C0F60002515CC84070470000F2
:1023700040F2180043F60801C2F20000C4F2020164
:102380000068096846F22452C1F34231C0F60002E7
:10239000515CC8407047000010B543F60404C4F215
:1023A00002046068C0F3810142F20040C0F2F40010
:1023B000DFE801F04202081841F20020C0F27A0082
:1023C00010BD00BF216801F03F0221682368490267
:1023D000C3F3881116D4A1FB00010023FDF78AFF87
:1023E00017E000BF216801F03F022168236849021D
:1023F000C3F3881114D4A1FB00010023FDF77AFF79
:1024000015E000BF41F20020C0F27A004843B0FB63
:10241000F2F021680222C1F3014102EB410109E01F
:1024200041F20020C0F27A004843B0FBF2F021688C
:10243000C1F30271B0FBF1F010BD0000002804BF31
:10244000012070472DE9F04182B00446007843F640
:102450000006C007C4F202060CD0B06800F00C0001
:10246000042840F089803068800303D56068002824
:1024700000F050812078800723D5B06810F00C0F51
:1024800011D0B06800F00C00082802D1706840023A
:1024900009D5B06800F00C000C2840F09F807068EF
:1024A000400200F19B803068800703D5E068012876
:1024B00040F030813068216920F0F80040EAC10026
:1024C00030602078000713D4207840072AD4A5690B
:1024D000002D00F01A81B06800F00C00082840F0D0
:1024E000AB80012D40F0E880012002B0BDE8F08112
:1024F0006069002840F20000C4F2472000F08880A4
:102500000121C0F8801EFFF7ADFA0546706F800705
:10251000DAD4FFF7A7FA401B0228F7D9032002B04C
:10252000BDE8F081306C5FEAC0080AD40020019059
:10253000306C40F080503064306C00F0805001907E
:10254000019847F20007C4F200073868C00537D485
:10255000386840F480703860FFF784FA054600BFA1
:102560003868C0052CD4FFF77DFA401B0228F7D944
:10257000032002B0BDE8F081B06800F00C0008282C
:1025800003D1706840023FF56EAFB06800F00C00F8
:102590000C2803D1706840023FF565AF6068B0F564
:1025A000803F07D0B0F5A02F40F0CC80306840F4D9
:1025B00080203060306840F480303060CCE000BF74
:1025C000A068012805D0052858D1306F40F00400DC
:1025D0003067306F40F0010030675AE0E068002853
:1025E00000F09C800020C4F2472001210160FFF729
:1025F00039FA0546306880073FF55CAFFFF732FADD
:10260000401B02284FF00300F4D902B0BDE8F0816E
:102610000021C0F8801EFFF725FA0546706F80077D
:102620007FF552AFFFF71EFA401B0228F6D90320B0
:1026300002B0BDE8F08100BF0027C4F247270020A8
:102640003866FFF70FFA022D05460BD1306880017E
:1026500040F19480FFF706FA401B02284FF0030078
:10266000F4D9D2E7306880014FD5FFF7FBF9401B62
:1026700002284FF00300F5D9C7E700BF316F0028EB
:1026800021F001013167316F21F00401316700F061
:102690009980FFF7E7F9054641F28837306F8007E8
:1026A00000F1A280FFF7DEF9401BB842F6D9032003
:1026B00002B0BDE8F08100BF7068E16900F48002FB
:1026C0008A4227D1216A00F03F028A4222D147F68E
:1026D000C071626A0140B1EB821F1BD1A16A4FF643
:1026E000FF73C903994300F44032A1F580318A4257
:1026F00010D1E16A00F07062B2EB016F0AD1216B78
:1027000000F0E040B0EB017F04D1002002B0BDE852
:10271000F08100BF012002B0BDE8F0810020C4F2CA
:10272000472000210160FFF79DF9054630688007CA
:102730007FF5C7AEFFF796F9401B02284FF0030064
:10274000F4D962E73168002821F4803131603168C2
:1027500021F48021316051D0FFF784F9054600BF94
:10276000306880033FF586AEFFF77CF9401B642894
:10277000F6D9032002B0BDE8F08100BF04F11C05CA
:102780002FCD246B084340EA8210D9034FF6FF7225
:102790009143A1F5803140EA0560084340EA0470A6
:1027A000706001203866FFF75DF9044630688001EB
:1027B000ABD4FFF757F9001B02284FF00300F5D9FF
:1027C00023E700BFFFF74EF9054641F2883700BF07
:1027D000306F800708D5FFF745F9401BB8424FF02E
:1027E0000300F5D911E700BFB8F1000F3FF56FAE58
:1027F000306C20F08050306469E600BFFFF732F99A
:10280000054600BF306880037FF534AEFFF72AF934
:10281000401B64284FF00300F4D9F6E6411E002067
:10282000B0EB116F1CBF012070474EF21002CEF2C8
:10283000000251604EF62351CEF20001F0230B70DE
:10284000072190601160704790F83C20012A4FF0FA
:10285000020254D010B580F83D200268D2F804E09E
:10286000D2F808C00C682EF07003234341F2FF74C5
:10287000C4F20004A24253600EDC40F2FF73C4F2C3
:1028800000039A4216DCB2F1804F2BD040F2004395
:10289000C4F2000324E000BF40F2FF33C4F201039E
:1028A0009A4213DC41F60003C4F200039A4219D0A5
:1028B000002313E040F60003C4F200039A4211D053
:1028C00040F60043C4F200030AE000BF44F20003F4
:1028D000C4F201039A4205D040F20043C4F201035E
:1028E0009A4204D149682CF0800319439160012178
:1028F000002280F83D1080F83C20BDE810401046D2
:1029000070470000002804BF012070472DE9F04700
:10291000044690F83D000D4628B9002084F83C009C
:10292000204600F049F8022084F83D00206844F277
:102930000702816891438160211D02F081F82068BF
:102940004FF6FF7881688269D0F820C0D5E9003E53
:10295000D5E9026A43EA0109AB6922EA080246EABC
:1029600003234FF6FC46B343D5E9076742EA0A0260
:1029700029691A4342EA062242EA01112CF0AA020E
:102980006B6942EA0E0241EA073142EA0312C0F8DB
:10299000089081610262012084F8460084F83E00BC
:1029A00084F83F0084F8420084F8430084F83D0036
:1029B0000020BDE8F087000080B586B0006840F6D2
:1029C0000002C4F2000200219042CDE90411CDE9D9
:1029D0000211019122D0B0F1804F48D1002043F67E
:1029E00030010090C4F202010A6942F001020A615A
:1029F0000A6902F001020092009A0090086803221E
:102A000040F0010008600868012100F0010000901A
:102A100000980020C4F202001FE000BF43F630001F
:102A20000091C4F20200026942F0040202610269EC
:102A300002F004020092009A00910168C02241F065
:102A4000020101600068022100F00200009000987D
:102A50000020C4F2020000F580600192022202927E
:102A60000022059101A9CDE90322FEF725FF06B05A
:102A700080BD000080B590F83E2090F83F3090F87F
:102A800042E090F843C004290AD0B9B9012A4FF0B6
:102A9000010208BFBEF1010F34D0104680BD00BF57
:102AA000012B4FF0010208BFBCF1010FF5D102214B
:102AB00080F83F1080F8431000681EE0012A4FF0B4
:102AC000010208BF012BE8D1BEF1010FE5D1BCF135
:102AD000010FE2D1022280F83E2080F83F2080F8EA
:102AE000422080F8432091B10068016A21F0010181
:102AF0000162016A41F00101016210216FF01002D0
:102B000009E000BF022180F83E1080F84210006802
:102B100001216FF00102036A1A400262026A114346
:102B200001620168002241F001010160104680BD90
:102B300090F83C30012B04BF022070474FEAB202EC
:102B4000032A00F201812DE9F043DFE802F0033FA0
:102B50007FBF00BF036840F200461C6A1A6A24F077
:102B6000020422F001021A621A46D3F804C052F895
:102B700018EF8F6843F48065C4F20106B54244EA59
:102B8000070405D1CF6824F00C0427F004073C4368
:102B90000F68B54206D1D1E905582CF440762E4392
:102BA00046EA080C2EF073063743C3F804C09F6151
:102BB0004F6809695F631C629F6947F008079F615E
:102BC0009F6927F004079F61B2E000BF036840F2ED
:102BD00000481C6A1A6A24F0200422F010021A62CB
:102BE0001A46D3F804C052F818EF8F6843F4806592
:102BF000C4F20108454544EA071407D1CF686FF0D5
:102C0000400624F0C00406EA07163443D1F80090C9
:102C1000454506D1D1E905562CF440672E4347EAD5
:102C2000860C2EF4E64747EA0927C3F804C09F61E3
:102C30004F6809699F631C629F6947F400679F6141
:102C40009F6927F480679F6171E000BF036840F2CD
:102C500000481C6A1A6A24F4007422F480721A6212
:102C60001A46D3F804C052F81CEF8F6843F480650D
:102C7000C4F20108454544EA072408D1CF6840F270
:102C8000FF463F0224F4406427EA06063443D1F8A5
:102C90000090454506D1D1E905562CF440572E4306
:102CA00047EA061C2EF0730747EA0907C3F804C079
:102CB000DF614F680969DF631C62DF6947F008075D
:102CC000DF61DF6927F00407DF6131E0036840F26C
:102CD0000045D3F820C01A6A43F4806722F480527A
:102CE0001A621A465C6852F81CEFD1F800808E68B0
:102CF000C4F20105AF4204D14D6924F4804444EA92
:102D000085142CF4005747EA06372EF4E64646EAC7
:102D100008265C60DE614E6809691E641F62DF6917
:102D200047F40067DF61DF6927F48067DF6109022C
:102D30001368194311600021BDE8F043002280F8B8
:102D40003C200846704700BF0121002280F83C204B
:102D500008467047002804BF0120704710B504469C
:102D600090F83D0028B9002084F83C00204600F08F
:102D70001FF8022084F83D002068211D01F060FE4C
:102D8000012084F8460084F83E0084F83F0084F86F
:102D9000400084F8410084F8420084F8430084F83D
:102DA000440084F8450084F83D00002010BD000078
:102DB000006840F20041C4F20001884218BF704729
:102DC00081B00020009043F64000C4F20200016888
:102DD00041F002010160006800F0020000900098DC
:102DE00001B0704741B1082910D0042914BF00F187
:102DF000410200F13F020BE090F83E20012A1CBF87
:102E000001207047022280F83E2013E000F14002CA
:102E10001278012A1CBF012070470222082907D01E
:102E2000042914BF80F8412080F83F2002E000BF51
:102E300080F84020006801F01F010122036A02FAB5
:102E400001F123EA01020262026A114341F2FF72B8
:102E5000C4F200029042016210DC40F2FF71C4F241
:102E6000000188421CDCB0F1804F3FD040F20041AD
:102E7000C4F20001884239D03DE000BF40F2FF318A
:102E8000C4F20101884219DC41F60001C4F20001DC
:102E900088422BD00021C4F2010188421AD02AE0D6
:102EA00040F60001C4F2000188421FD040F6004104
:102EB000C4F20001884219D01DE000BF44F20001B5
:102EC000C4F20101884211D040F20041C4F2010174
:102ED000884210D1416C40F2004340F48062C4F259
:102EE000010341F400419A42416404D1816801F038
:102EF0000701062903D0016841F0010101600020AB
:102F0000704700007047000070470000B0B582B005
:102F1000044600680168C368426901F02F05202D4E
:102F200003F0200506D12DB1204602B0BDE8B04027
:102F300001F0A8BF5FEA017C1EBF02F0010E03F49E
:102F4000907212EB0E0243D1226BCD0618D5012AE6
:102F500016D113F0100213D00021019101680191E4
:102F6000416801910199406940063BD4A08DE18DF3
:102F7000E28D002A18BF884240F0FE8102B0B0BD49
:102F80000A0640F1E98013F0800200F0E58094F831
:102F900041102129F2D1A168B1F5805F03D12169E7
:102FA000002900F06F82216A4A1C22620978416080
:102FB000E18C01390A04E184E0D1C16821F080018B
:102FC000C160C16841F04001C16002B0B0BD00BF46
:102FD000CA0718BF13F4807240F0DC804A0700F182
:102FE000DF80E4E0E06B01684A68A38D91B20029BC
:102FF00000F0C680994280F0C380E285C069B0F5D8
:10300000807F00F09C80206850E8030F216820F446
:10301000807041E80302DAB1206850E8030F2168AC
:1030200020F4807041E8030292B1206850E8030F59
:10303000216820F4807041E803024AB1206850E81A
:10304000030F216820F4807041E80302002ADAD1DE
:10305000206850E8050F216820F0010041E80502D2
:10306000DAB1206850E8050F216820F0010041E83E
:10307000050292B1206850E8050F216820F0010098
:1030800041E805024AB1206850E8050F216820F0A8
:10309000010041E80502002ADAD1206850E8050F56
:1030A000216820F0400041E80502DAB1206850E8CC
:1030B000050F216820F0400041E8050292B1206828
:1030C00050E8050F216820F0400041E805024AB1B0
:1030D000206850E8050F216820F0400041E8050213
:1030E000002ADAD1202084F84200002020632068E2
:1030F00050E8030F216820F0100041E80302DAB124
:10310000206850E8030F216820F0100041E8030216
:1031100092B1206850E8030F216820F0100041E8C8
:1031200003024AB1206850E8030F216820F0100024
:1031300041E80302002ADAD1E06BFEF76BF90220C6
:103140006063A08DE18D401A81B2204602B0BDE8D7
:10315000B040FFF7D7BE00BF49067FF50FAF13F0B1
:1031600040013FF40BAFC16821F04001C160202154
:10317000204684F8411002B0BDE8B04000F088BCA1
:103180008B427FF4FBAEC069B0F5807F7FF4F6AE72
:1031900002226AE1626C42F0010262644A0706D5CB
:1031A000BEF1000F03D0626C42F0020262648A0733
:1031B00006D5BEF1000F03D0626C42F004026264D7
:1031C000BCF1000F06D55EEA050203D0626C42F046
:1031D00008026264626C002A3FF4D0AE890604D50E
:1031E0001DB1204601F04EFE20684069616C00F080
:1031F000400001F00801401800F0B680206850E857
:10320000030F216820F4907041E80302BAB32068EC
:1032100050E8030F216820F4907041E8030272B374
:10322000206850E8030F216820F4907041E8030201
:103230002AB3206850E8030F216820F4907041E819
:103240000302002ADAD11AE0206850E8050F21684D
:1032500020F0010041E80502DAB1206850E8050FCE
:10326000216820F0010041E8050292B1206850E891
:10327000050F216820F0010041E805024AB12068ED
:1032800050E8050F216820F0010041E80502002AFE
:10329000DAD1206B012824D1206850E8030F21687F
:1032A00020F0100041E80302DAB1206850E8030F73
:1032B000216820F0100041E8030292B1206850E834
:1032C000030F216820F0100041E803024AB1206892
:1032D00050E8030F216820F0100041E80302002AA3
:1032E000DAD1202084F84200002020632068406961
:1032F000400640F1C180206850E8050F216820F0A9
:10330000400041E80502DAB1206850E8050F216865
:1033100020F0400041E8050292B1206850E8050F16
:10332000216820F0400041E805024AB1206850E8D9
:10333000050F216820F0400041E80502002ADAD19B
:10334000E06B002800F0988044F68531C0F600015B
:103350000165FEF7A7F800283FF410AEE06B016DA1
:1033600002B0BDE8B04008472046FFF7CDFD002081
:10337000606402B0B0BD00BF401A00BF216851E8D0
:10338000031F226821F4907142E80313BBB3216844
:1033900051E8031F226821F4907142E8031373B3CC
:1033A000216851E8031F226821F4907142E8031359
:1033B0002BB3216851E8031F226821F4907142E881
:1033C0000313002BDAD11AE0216851E8051F2268A7
:1033D00021F0010142E80513DBB1216851E8051F26
:1033E000226821F0010142E8051393B1216851E8F8
:1033F000051F226821F0010142E805134BB1216845
:1034000051E8051F226821F0010142E80513002B55
:10341000DAD1202184F8421000212163216851E88B
:10342000031F226821F0100142E80313DBB1216879
:1034300051E8031F226821F0100142E8031393B101
:10344000216851E8031F226821F0100142E80313AC
:103450004BB1216851E8031F226821F0100142E8B6
:103460000313002BDAD1022281B22046626302B03C
:10347000BDE8B040FFF746BD204602B0BDE8B04011
:10348000FFF742BD216A31F8022B6FF35F224260E1
:1034900021628DE5002804BF0120704710B5044665
:1034A00090F8410028B9002084F84000204600F040
:1034B00021F8242084F841002068C16821F40051DB
:1034C000C160204601F05EFD2068016921F4904151
:1034D0000161416921F02A014161C16841F4005153
:1034E000C16000202021606484F8411084F84210FB
:1034F000606310BD2DE9F04387B00446006841F2D7
:103500000041C4F2010100268842CDE90566CDE9FB
:10351000036602967AD041F20001C4F201018842AA
:1035200040F0DC8043F630000196C4F202004169AD
:1035300046F2284841F0100141614169C4F2020895
:1035400001F01001019101990196016841F001011A
:103550000160006802A900F00100019001984FF499
:10356000C06002900220CDE90306032005900720E9
:1035700006900020C4F20200FEF79EF940F21C15EE
:1035800008F11800C2F200054FF00067C5E9000716
:103590004FF480304FF480694FF48071C5E908061C
:1035A0002846C5E90266C5E90496C5E90661FEF745
:1035B0006BF8002818BFFDF75DFCE563AC6340F2D3
:1035C0007C1508F19000C2F200054021C5E9000712
:1035D00005F1080080E842022846C5E90566C5E90C
:1035E00007666E62FEF750F8002818BFFDF742FC30
:1035F000252000210022A563AC63FEF779FD25207C
:10360000FEF764FD07B0BDE8F08300BF43F630006D
:103610000196C4F20200416946F2284841F02001B7
:1036200041614169C4F2020801F020010191019950
:103630000196016841F004010160006802A900F0F0
:10364000040001900198C02002900220CDE90306F9
:1036500003200590082006900020C4F2020000F527
:103660000060FEF729F940F2DC15C2F200054FF4C4
:103670008070C5E906604FF400304FF020674FF4CA
:103680008069C5E908062846C5E90087C5E90266DC
:10369000C5E90496FDF7F8FF002818BFFDF7EAFB1F
:1036A000E563AC6340F23C2508F17800C2F2000506
:1036B0004021C5E9000705F10800002280E8060264
:1036C0002846C5E90522C5E907226A62FDF7DCFF45
:1036D000002818BFFDF7CEFBA563AC6307B0BDE8BB
:1036E000F083000070B582B0044690F842002028B4
:1036F0000AD113460A4600294FF0010018BF002BDB
:1037000006D102B070BD00BF022002B070BD00BF84
:10371000002622202663A262A385666484F8420004
:10372000E06B44F60D5C44F66D652168C0F6000C54
:10373000C0F60005C0E90FC544F69135C0F6000596
:103740000431C0E91356FEF751F838B11020606417
:10375000202084F84200012002B070BD019620684C
:1037600001680191406801900198206930B300BF61
:10377000206850E8030F216840F4807041E803029C
:10378000E2B1206850E8030F216840F4807041E8FE
:1037900003029AB1206850E8030F216840F480705A
:1037A00041E8030252B1206850E8030F216840F459
:1037B000807041E80302002ADAD100BF206850E897
:1037C000050F216840F0010041E80502E2B12068E0
:1037D00050E8050F216840F0010041E805029AB168
:1037E000206850E8050F216840F0010041E805021B
:1037F00052B1206850E8050F216840F0010041E80F
:103800000502002ADAD100BF206850E8050F2168C0
:1038100040F0400041E80502F2B1206850E8050F91
:10382000216840F0400041E80502AAB1206850E854
:10383000050F216840F0400041E8050262B12068B0
:1038400050E8050F216840F0400041E80502002AD9
:103850004FF00000D8D154E7002002B070BD000046
:1038600090F84230202B07D100294FF0010318BFF8
:10387000002A05D11846704702231846704700BF3A
:1038800000230363816222218285C285436480F81C
:1038900042100169006819B1C16841F48071C160CA
:1038A000416941F001014161C16841F02001C160FD
:1038B0001846704740F2C831C2F20001884218BF72
:1038C000704740F28000C2F20000C178002904BFB6
:1038D0000121C17001783039CAB2042A04D808A382
:1038E00053F822204170026140F2C83040F280015A
:1038F000C2F20000C2F200010122FFF7B1BF00BF17
:103900000000000090010000900100000000000095
:1039100000000000704700002DE9F041044690F8D7
:10392000410020281CBF0220BDE8F0810D4600297F
:103930004FF0010000F0AA801646002A08BFBDE83B
:10394000F081002060642120984684F84100FEF751
:1039500089F8A684E684A1680646B1F5805F02D1A5
:103960002069002862D02F460025E08C002861D015
:1039700018F1010018D0B8F1000F37D1216808E024
:1039800017F8010B4860E08C0138E084E08C0028D7
:1039900051D00868000673D5002FF1D135F8020B1D
:1039A00000276FF35F20EDE7216802E0086800065A
:1039B00009D40868000606D4086800065CBF0868D9
:1039C0005FEA0060F2D51FB117F8010B05E000BFF8
:1039D00035F8020B00276FF35F204860E08C013858
:1039E000E084E08C0028E4D125E000BF216800BF1E
:1039F0000868000608D4FEF735F8801B404541D81A
:103A00002168C868F4E700BF17B117F8010B04E09C
:103A100035F8020B00276FF35F204860E08C013817
:103A2000E084E08C0028E3D105E000BF0027E08CB3
:103A300000289DD12168086840061FD4B8F1000F06
:103A40001ED018F101000FD10868400616D408688E
:103A5000400613D40868400610D4086840064FF0AA
:103A60000000F1D50FE000BFFDF7FCFF801B4045D3
:103A700008D82068C16800684006F5D5002002E03B
:103A8000FDF7F0FF0320202184F84110BDE8F0810C
:103A900070470000FEE700002DE9F04782B00446C1
:103AA00000689A460B9D0A9E0368914643F4806223
:103AB000026002680F4642F48071016020464FF0B8
:103AC000011100223346009500F032F950B1206810
:103AD0000068C00544BF4FF400702064032002B0AA
:103AE000BDE8F08740F202082068C0F2010807F044
:103AF000FE0707612046414632462B4600F0FEF99C
:103B000020B1012002B0BDE8F08700BF0020019085
:103B100020682A46416901918069314601900198E7
:103B2000204600F09FFAB0B92068BAF1010F09D021
:103B30004FEA19210161204631462A4600F092FAE7
:103B400048B920685FFA89F10161204631462A466A
:103B500000F088FA60B1206C0428D2D12068016896
:103B600041F400710160012002B0BDE8F08700BFA0
:103B7000206800220168334641F4807101602046CC
:103B80004FF00111009500F0D3F800289FD147F0C5
:103B9000010C27682046414632462B46C7F810C024
:103BA00002B0BDE8F04700F0A9B900002DE9F043EC
:103BB00083B0044600680D4601680A9F0B9E41F4DD
:103BC000807199469046016020464FF00111002215
:103BD0003B46009600F0ACF850B120680068C00584
:103BE00044BF4FF400702064032003B0BDE8F083AD
:103BF000206805F0FE0101610221C0F201012046AA
:103C00003A46334600F07AF920B1012003B0BDE80E
:103C1000F08300BF00200290206832464169029183
:103C20008069394602900298204600F01BFA58B18C
:103C3000206C0428E9D12068016841F4007101601A
:103C4000012003B0BDE8F0832068B9F1010F0AD06C
:103C50004FEA1821016120463946324600F002FA47
:103C60000028E5D120685FFA88F10161002003B0E7
:103C7000BDE8F08370B50368044653F8140F40079D
:103C800011D40E46481C29D086BB00BF18684005D9
:103C900027D4FDF7E7FE236853F8140F400737D504
:103CA00018684007F2D5002070BD00BF18684007B3
:103CB000F9D41868400514D418684007F3D418687C
:103CC00040050ED418684007EDD41868400508D4A4
:103CD000186840074FF0000048BF70BD18684005E5
:103CE000E4D56FF480601860042012E0154603E00C
:103CF00053F8140F4007D6D418684005F1D4FDF7E7
:103D0000B1FE401B2368B042F2D958694007EFD496
:103D1000202000212022216384F83D2084F83E10D9
:103D2000226C10432064012084F83C1070BD000018
:103D30002DE9F041054600681E46144601F47F0255
:103D400001338FB242D0DDF81880B2F5803F40F0E9
:103D5000878040693840C01BB0FA80F04009A0421B
:103D600040F0C8804EB924E040693840C01BB0FA2A
:103D700080F04009A04240F0BD80FDF773FEA0EB4B
:103D800008012868B142EFD941693940C91BB1FA2D
:103D900081F14909A142E7D19BE000BF4069384069
:103DA000C01BB0FA80F04009A0424FF0000040F084
:103DB000A280FDF757FE286841693940C91BB1FA56
:103DC00081F14909A142E9D183E000BFB2F5803F0A
:103DD00024D100BF41693940C91BB1FA81F14909B9
:103DE000A14240F0878041693940C91BB1FA81F195
:103DF0004909A14240F07E8041693940C91BB1FAAE
:103E000081F14909A14275D141693940C91BB1FA13
:103E100081F14909A142DDD06CE000BF81693940E0
:103E2000C91BB1FA81F14909A14263D181693940C5
:103E3000C91BB1FA81F14909A1425BD181693940BD
:103E4000C91BB1FA81F14909A14253D181693940B5
:103E5000C91BB1FA81F14909A142DFD04AE000BF94
:103E600080693840C01BB0FA80F04009A04241D1BF
:103E700046B923E080693840C01BB0FA80F04009A1
:103E8000A04237D1FDF7EEFDA0EB08012868B14252
:103E9000F0D981693940C91BB1FA81F14909A142C0
:103EA000E8D116E080693840C01BB0FA80F04009C4
:103EB000A0424FF0000018BFBDE8F081FDF7D2FD31
:103EC000286881693940C91BB1FA81F14909A142C9
:103ED000E8D100202021286385F83D1085F83E00B8
:103EE000296C41F02001296485F83C000120BDE8DF
:103EF000F08100BF0020BDE8F0810000F0B581B086
:103F0000044600681D4643698FB203EA0701B942BF
:103F100002D1002001B0F0BD4169164601323FD008
:103F200049053FD4CEB100BFFDF79CFD411B206881
:103F3000B14203D941693940B94215D1416939408B
:103F4000B942E6D041694905EED52BE041693940D7
:103F5000B942DED04169490524D4FDF783FD2068CC
:103F600041693940B942F1D0202023E0416939400C
:103F7000B942CED04169490514D441693940B942AA
:103F8000C7D0416949050DD441693940B942C0D013
:103F90004169490506D441693940B942B9D04169FE
:103FA0004905E3D5016841F4007101606FF4806157
:103FB0004161042000212022216384F83D2084F8FF
:103FC0003E10226C1043206484F83C10012001B0A4
:103FD000F0BD000070B504460068154650F8143F67
:103FE0005A063DD40E4629B926E000BF50F8141FEA
:103FF000490635D40168C90621D4FDF733FD411BBC
:104000002068B142F2D941694906EFD4002020214D
:10401000206384F83D1084F83E00206C40F02000BE
:1040200018E000BFFDF71EFD206850F8141F490678
:10403000ECD50168490613D40168C906F2D56FF0C2
:104040001001016000202021206384F83D1084F8D5
:104050003E00206C2064002084F83C00012070BDEC
:10406000002070BD70B50368044653F8140F0006B5
:1040700011D40E46481C29D086BB00BF18684005E5
:1040800027D4FDF7EFFC236853F8140F000637D54B
:1040900018680006F2D5002070BD00BF1868000641
:1040A000F9D41868400514D418680006F3D41868C9
:1040B00040050ED418680006EDD41868400508D4F1
:1040C000186800064FF0000048BF70BD1868400532
:1040D000E4D56FF480601860042012E0154603E018
:1040E00053F8140F0006D6D418684005F1D4FDF734
:1040F000B9FC401B2368B042F2D958690006EFD4DE
:10410000202000212022216384F83D2084F83E10E5
:10411000226C10432064012084F83C1070BD000024
:104120002DE9F04F8FB0CDE903104FF0000A4FF0AA
:10413000640B0027002400254FF000094FF0000811
:10414000642617E00A9808FA80F8099809FA80F9B5
:10415000089805FA80F5079804FA80F4069807FA9B
:1041600080F705980AFA80FA0A20FDF791FBBBF167
:10417000010B2DD00DF12E0000900E20019004981F
:10418000D0213B2201230296FDF724FD0028D9D13E
:10419000BDF82E00BDF8301000BA000C0A9008BA25
:1041A000BDF83210000C099008BABDF83610000CAA
:1041B000089008BABDF83810000C079008BABDF88E
:1041C0003A10000C069008BA000C0590BAE700BF40
:1041D00048F21F50C5F2EB1058FB00F14A09039B4F
:1041E00002EBD171198059FB00F14A0902EBD17140
:1041F000598055FB00F14A1102EBD17100EE101A03
:104200009FED171AB8EEC00A30EE010ABDEEC00AE3
:1042100010EE101A998054FB00F14A0902EBD1719B
:10422000D98057FB00F14A0902EBD1715AFB00F02B
:104230001981410901EBD0704CF6CD415881002025
:10424000C3F6CC5101221A73C3E90410C3E9060076
:10425000C3E90800C3E90A0018630FB0BDE8F08F96
:10426000000080C6B0B584B040F2D40042F2000134
:1042700001230024C2F20000C4F20101C0F6007361
:10428000012503944FF48032047680F82040C0E981
:104290000A34C56180F8304080E81600C0E9034464
:1042A0004561FCF7A7FE002818BFFCF7E3FD0220DC
:1042B000CDE9000540F2D400C2F200006946029444
:1042C000FCF7DCFD002818BFFCF7D4FD04B0B0BD3E
:1042D00080B582B00020019043F63000C4F20200A5
:1042E0000168002241F4800101600068002100F4AF
:1042F0008000019001983920FDF7FAFE3920FDF782
:10430000E5FE3A2000210022FDF7F2FE3A20FDF7FB
:10431000DDFE452000210022FDF7EAFE4520FDF7E5
:10432000D5FE462000210022FDF7E2FE462002B025
:10433000BDE88040FDF7CABEF0B585B0002643F663
:1043400030000096C4F202000168002441F004012C
:1043500001600168C4F2020401F0040100910099B7
:1043600000960168002241F0800101600168202769
:1043700001F08001009100990096016841F001016F
:104380000160016801F00101009100990096016847
:1043900041F0020101600068202100F0020000905D
:1043A00000982046FDF758FB082000900220CDE938
:1043B00001060320039007206D46049020462946FD
:1043C000FDF77AFA0120CDE901062046294600973B
:1043D0000396FDF771FA05B0F0BD000080B540F21C
:1043E0009C2045F20041C2F20000C4F2000141F6F7
:1043F000802200234FF4804CC0F2060280E80E00B9
:10440000C0E9033CC0E90533C0E90733FDF730FBE1
:10441000002808BF80BDBDE88040FCF72BBD000030
:1044200080B58CB040F2F0200021C2F200004FF0C5
:1044300080424FF0FF33C0E900210122CDE9001195
:10444000C0E9021301618161CDE90321CDE90521B4
:10445000CDE90711CDE909210B9103A9FEF752FA25
:10446000002818BFFCF706FD40F2F020C2F2000061
:104470006946FEF7E9F9002818BFFCF7FBFC0CB011
:1044800080BD0000F0B58FB040F2004540F23830FA
:10449000C4F200050021C2F20000532240F2E733CB
:1044A000CDE90811CDE90611CDE90411C0E90052AA
:1044B000C0E9021301618161FEF74CFC002818BFBE
:1044C000FCF7D8FC40F23830C2F2000008A9FEF731
:1044D000BBF9002818BFFCF7CDFC6020019000203C
:1044E000CDE90200059040F23830C2F2000001A987
:1044F0000022FEF71DFB002818BFFCF7BBFC40F2B2
:104500003830C2F2000001A90422FEF711FB002896
:1045100018BFFCF7AFFC40F23830C2F2000001A92E
:104520000822FEF705FB002818BFFCF7A3FC40F2A9
:104530003834C2F2000401A920460C22FEF7F8FA32
:10454000002818BFFCF796FC2068A84202D00FB0E4
:10455000F0BD00BF002643F630000A96C4F2020008
:1045600001680AAC41F0010101600168022701F015
:1045700001010A910A990A96016841F0020101605D
:104580000068214600F002000A900A98C0200A90B4
:1045900005F5FE30CDE90B76CDE90D67FDF78CF919
:1045A0000320CDE90A0705F500302146CDE90C6668
:1045B0000E97FDF781F90FB0F0BD000080B58CB00B
:1045C00040F2803040F600020021C2F20000C4F246
:1045D00000024FF6FF73C0E900210122CDE900116E
:1045E000C0E9021301618161CDE90321CDE9052113
:1045F000CDE90711CDE909210B9103A9FEF782F955
:10460000002818BFFCF736FC40F28030C2F20000F0
:104610006946FEF719F9002818BFFCF72BFC0CB00F
:1046200080BD000080B540F2C83041F20001C2F206
:104630000000C4F2010100234FF00C0C4FF4E132F2
:1046400080E80E00C0E90333C0E905C3C361FEF78B
:1046500021FF002808BF80BDBDE88040FCF70ABCF0
:1046600080B540F2104041F20041C2F20000C4F2B5
:10467000010100234FF00C0C4FF4E12280E80E0002
:10468000C0E90333C0E905C3C361FEF703FF002897
:1046900008BF80BDBDE88040FCF7ECBBFEE7000032
:1046A000FEE70000704700002DE9F04F81B02DEDCE
:1046B000028B98B040F21040C2F20000C06B40F292
:1046C00080070068C2F200074168786AC1F5807609
:1046D000B0420BD1F86BB0F57A7F84BF0020F8634D
:1046E00018B0BDEC028B01B0BDE8F08F40F25C4425
:1046F0004BF6510A9FED548AC2F2000407F1480BB1
:104700004FF00008C0F21E5A4FF0040909E000BF44
:10471000D7F8490087F80A90B86400BF786AB042B9
:10472000D8D0255C0130C0B27862FDF79BF9B86241
:10473000F96BF87901310128F9630FD00028EDD128
:10474000387A01285ED0002864D1A52DE6D1012059
:104750003872A52087F84D00E0E700BFB87A411C09
:10476000CAB23844052AB97280F84850D6D3386C9A
:1047700001303864584600F07BF80028C8D0786CC7
:1047800087F80A80451C45F62940CCF28F20684303
:104790004FEA700050457D64C0D8D7F8409000EED5
:1047A000105A01EE109AB8EE400AB8EE411A80EEA7
:1047B000010AD04620EE080A10EE100A01F0E0FDD2
:1047C00041EC100BCDF80090D9460DF1100B584676
:1047D00050211EA22B464FF000088DED020BFBF777
:1047E00001FE5846FBF70AFF82B240F2C830C2F21F
:1047F000000059460A23CB464FF00409FFF78CF816
:104800008CE700BF5A2D1BD1022038725A2087F83E
:104810004E0083E7411CCAB23844072A397280F837
:104820004D50FFF47BAF97F84D00A52808D197F8BD
:104830004E005A2804D10120A7F807006EE700BFF8
:1048400087F808806AE700BF0000C8425B53414D0B
:10485000504C455D2056616C69643A20256C752F7B
:10486000256C752028252E31662525290D0A000086
:1048700002780021042A6FD382EA520313F0010365
:104880006AD0B0B52DED048B8CB0B0F80310B5EE46
:10489000001A00EE101AB8EE400A9FED312A20EE01
:1048A000010AB4EE420AF1EE10FA4FF000014EDBBD
:1048B0009FED2C1AB4EE410AF1EE10FA47DCB0F885
:1048C000010040F25845400801EE100A9FED233ADE
:1048D000C2F20005B8EE412A95ED001A22EE038AD5
:1048E00038EE412A9FED203AB0EEC22AB4EE432AB8
:1048F000F1EE10FA04DAB4EE418AF1EE10FA26DA9B
:1049000010EE100A940801F03BFD41EC190B18EE73
:10491000100A01F035FD41EC100B049446F23452BC
:1049200006ACC0F60002204618218DED009B8DEDEF
:10493000020BFBF757FD82B240F2C830C2F2000012
:1049400021460A23FEF7E8FF012185ED008A0CB01D
:10495000BDEC048BBDE8B040084670470000803CC9
:104960000000484200803B46CDCCCC3D7047000063
:10497000FDF740BB80B594B0002043F640010C9099
:10498000CDE90A00CDE908000690CDE90400CDE9A3
:1049900002000190C4F202010A6842F080520A60EB
:1049A000096801F080510191019947F200010190DD
:1049B000C4F200010A6842F440420A600968012218
:1049C00001F44041019101990221CDE90D10082027
:1049D0000F90B4200A921022CDE9100107A8079188
:1049E0000B92CDE91211FDF729FD18B172B600BF87
:1049F000FEE700BFFDF7B8FB10B172B6FEE700BFDF
:104A00000F20029002200390002004904FF4A05049
:104A100005904FF48050069002A80521FDF7E2FBB7
:104A200010B172B6FEE700BF14B080BD4EF68850DC
:104A3000CEF20000016841F470010160704700008F
:104A4000B0B540F6FF3E0568C4F2000E40F2004CDF
:104A50007045C4F2010C27DCB0F1804F31D040F238
:104A60000043C4F2000398422BD040F60003C4F286
:104A70000003984225D041F6FF73C4F20003984228
:104A80002ADC70453CDCB0F1804F5FD040F200433F
:104A9000C4F20003984259D040F60003C4F2000368
:104AA000984253D057E000BF40F60043C4F20003E1
:104AB000984206D0604504D00023C4F20103984216
:104AC000D9D14B6825F0700243EA020541F6FF7325
:104AD000C4F200039842D4DD43F6FF73C4F201032D
:104AE000984221DC42F20003C4F2000398422DD028
:104AF0000023C4F20103984228D0604526D02AE062
:104B000040F60043C4F2000398421FD041F6000370
:104B1000C4F20003984219D041F60043C4F20003E6
:104B2000984213D017E000BF44F20003C4F201031F
:104B300098420BD044F60003C4F20103984205D01A
:104B400044F20043C4F20103984204D1CB6825F437
:104B5000407243EA02050A688C684B69C46240F4FB
:104B600080648262644504BF09690163026825F0BC
:104B7000800142F004021943026001224261016097
:104B8000B0BD0000806B0021C185FEF7BDB90000FB
:104B9000806B01684A6990F84130212B2DD112F0C9
:104BA00080022AD00021C184016851E8031F0268F5
:104BB00021F0C00142E80313DBB1016851E8031F93
:104BC000026821F0C00142E8031393B1016851E883
:104BD000031F026821F0C00142E803134BB10168D2
:104BE00051E8031F026821F0C00142E80313002BC3
:104BF000DAD1202180F841100168496990F84220FB
:104C0000222A40F07D8011F0400179D00021C18539
:104C1000016851E8031F026821F4907142E8031310
:104C2000BBB3016851E8031F026821F4907142E8A8
:104C3000031373B3016851E8031F026821F49071F4
:104C400042E803132BB3016851E8031F026821F403
:104C5000907142E80313002BDAD11AE0016851E8A1
:104C6000051F026821F0010142E80513DBB101686C
:104C700051E8051F026821F0010142E8051393B1D4
:104C8000016851E8051F026821F0010142E805139F
:104C90004BB1016851E8051F026821F0010142E8AB
:104CA0000513002BDAD1016B012924D1016851E8E9
:104CB000031F026821F0100142E80313DBB1016811
:104CC00051E8031F026821F0100142E8031393B179
:104CD000016851E8031F026821F0100142E8031344
:104CE0004BB1016851E8031F026821F0100142E84E
:104CF0000313002BDAD1202180F842100021016338
:104D0000416C41F010014164FEF7FEB80168806B10
:104D10000968C90500F19F800021C185016851E83B
:104D2000031F026821F4807142E80313E3B10168B4
:104D300051E8031F026821F4807142E803139BB11C
:104D4000016851E8031F026821F4807142E80313EF
:104D500053B1016851E8031F026821F4807142E8F1
:104D60000313002BDAD100BF016851E8051F026868
:104D700021F0010142E80513BBB3016851E8051FAA
:104D8000026821F0010142E8051373B3016851E89C
:104D9000051F026821F0010142E805132BB30168E9
:104DA00051E8051F026821F0010142E80513002BBC
:104DB000DAD11AE0016851E8051F026821F04001CC
:104DC00042E80513DBB1016851E8051F026821F0D4
:104DD000400142E8051393B1016851E8051F0268DC
:104DE00021F0400142E805134BB1016851E8051F6D
:104DF000026821F0400142E80513002BDAD120219E
:104E000080F84210016B012925D100BF016851E8EB
:104E1000031F026821F0100142E80313DBB10168AF
:104E200051E8031F026821F0100142E8031393B117
:104E3000016851E8031F026821F0100142E80313E2
:104E40004BB1016851E8031F026821F0100142E8EC
:104E50000313002BDAD100214163016B012918BF34
:104E6000FEF728BD818DFEF74DB80000806B012153
:104E70004163016B012918BFFEF74CBD818D4908C4
:104E8000FEF740B881B090F84210222921D1836802
:104E90000246B3F5805F09D152F8281F52F8183C3A
:104EA000002B63D003685B680AE000BF52F8281F3C
:104EB00013B90369002BF5D003685B6803F07F0327
:104EC0000B70116801311160C18D01390A04C1856F
:104ED00002D001B0704700BF0168CA6822F020020A
:104EE000CA60CA6822F48072CA604A6922F001026C
:104EF0004A61202180F8421000214163026B012A9F
:104F00003CD10163016851E8031F026821F01001E0
:104F100042E80313DBB1016851E8031F026821F086
:104F2000100142E8031393B1016851E8031F0268BE
:104F300021F0100142E803134BB1016851E8031F4F
:104F4000026821F0100142E80313002BDAD1016856
:104F50000A68D20606D5002200920A6800924968C3
:104F600000910099818D01B0FDF7CCBF02685268B5
:104F70006FF35F2221F8022B8162A5E701B0FEF7F3
:104F800099BC000010B504460068D4E902C2236948
:104F9000016921F4405111430161626943EA0C0146
:104FA000E3691143C268194349F20C639A43114300
:104FB000C1604169A26921F4407141F2004311438B
:104FC00040F48062C4F201039A42416102D1FDF7CC
:104FD000CFF901E0FDF7B8F9E16963681922B1F58D
:104FE000004FA0FB020123D15A00DB0FFBF782F92F
:104FF00048F21F51C5F2EB11A0FB01235A094FF6ED
:105000009C73C0F6FF7303F1805302FB030032234D
:1050100003EBC000A0FB01014FF4F87000EA11108F
:1050200000EB0210C1F3421108442168886010BDF2
:105030009A009B0FFBF75EF948F21F51C5F2EB1186
:10504000A0FB01235A094FF69C73C0F6FF7302FBC5
:105050000300322303EB0010A0FB0101F02000EA63
:10506000511000EB0210C1F343110844216888601D
:1050700010BD000040F2C830C2F20000FDF746BF8C
:10508000FEE7000000000000A6B0FCF7C1FFFFF73C
:1050900071FCFFF751F9FFF71BF9FFF7E3F8FFF792
:1050A000BFF9FFF7EFF9FFF789FAFFF7BBFAFFF750
:1050B000D7FAFFF793F940F2F020C2F200003C214A
:1050C000FDF7D8FC40F28030C2F200003C21FDF731
:1050D000D1FC40F23834C2F2000420460021002600
:1050E000FDF780FE20460421FDF77CFE20460821C6
:1050F000FDF778FE20460C21FDF774FE40F2C8351E
:1051000040F28007C2F20005C2F200072846394685
:105110000122FEF7A5FB6420FCF7BAFB40F2104425
:1051200042F2A550C2F20004ADF852000DF1520156
:10513000204602226423FEF7EFFB0A20FCF7A8FBBF
:1051400042F2A500ADF8500014A9204602226423C3
:10515000FEF7E2FB3220FCF79BFB40F25C41C2F21F
:10516000000120464FF48072FEF7BCFAA7F80760F2
:10517000FCF778FCB8620FF20071284626226423FF
:10518000FEF7CAFB49F2A500ADF84E000DF14E0145
:10519000204602226423FEF7BFFB6420FCF778FB65
:1051A000E06B00684068B0F5807F07D140F2C830FE
:1051B000C2F200000FF21471192211E016ACC0F512
:1051C00080730FF2E06220463C21FBF70BF920468A
:1051D000FBF714FA82B240F2C830C2F20000214656
:1051E0006423FEF799FB40F2C830C2F200000FF2D0
:1051F000F861102264236425FEF78EFB012416A8B3
:10520000CDE9000440F29C20C2F20000D0217522BA
:1052100001230295FCF7DEFC9DF85800682801D0B8
:1052200070281BD10DF15600CDE9000440F29C24FA
:10523000C2F2000400262046D0216B2201238DF803
:1052400056600295FCF7F2FD40F25C51C2F200019B
:1052500020467E72FEF764FF02E000BF01207872F4
:1052600040F2F020C2F20000006840F28031C2F249
:105270000001406A0968496AC7E90701FCF7F2FBC7
:105280009FED0DEA9FED0DAA40F29058DFED0C8ADC
:1052900040F2C83440F25C5A4FF0000B44F2A506CD
:1052A000C2F20008C2F20004C2F2000AC7E90B0011
:1052B000C7E90D0078610AE00000B44300803B4577
:1052C0000000803844F2A5060120FCF7E1FAFCF763
:1052D000C9FBF978814671B1387960B940F20000B4
:1052E000C2F20000411C20460B224FF47A73FEF7F5
:1052F00013FB01203871FCF7B5FB7969411A1E29AF
:1053000019D37978BA780029786140F0F781002ABA
:1053100000F0F48140F23830C2F200000068C7F8B3
:105320000CB087F802B0C0F834B0C0F838B0C0F89C
:105330003CB0C0F840B0FCF795FBB96A0546401A8E
:1053400040F6B93188420FD2F86AA9EB000005286F
:105350003FD2786BA9EB0000142843D2B86BA9EBBD
:1053600000003228B0D3A7E040F2104B42F2A55023
:10537000C2F2000BADF85800584616A90222642369
:10538000FEF7CAFA0A20FCF783FA58460DF15601D7
:1053900002226423ADF85660FEF7BEFA4FF4FA70AD
:1053A000FCF776FA42F2A500ADF85400584615A96C
:1053B000022264234FF0000BFEF7AEFA3220FCF716
:1053C00067FAA7F807B0BD62F86AA9EB00000528E4
:1053D000BFD3C7F82C90FFF767F9786BA9EB0000F3
:1053E0001428BBD340F2F020C2F20000006840F263
:1053F0008031C7F83490C2F20001406A0968496AF6
:10540000D7E90723C7E90701821A00EE102ACB1A51
:10541000B8EEC00A80EE0E0A01EE103AB8EEC11ADC
:1054200081EE0E1A20EE0A0A10EE100A21EE0A8A08
:1054300000F0A6FF41EC1B0B18EE100A00F0A0FFD5
:1054400041EC100B46F2755240466421C0F6000252
:105450008DED00BB8DED020BFAF7C4FF4046FBF764
:10546000CDF882B2204641460A23FEF755FA40F2B3
:10547000D405C2F200052846FBF71EFF28464FF070
:10548000FF31FBF799FE2846FBF7B0FD0346404687
:1054900064210FF26842FAF7A5FF4046FBF7AEF829
:1054A00082B2204641460A23FEF736FAB86BA9EBD2
:1054B00000003228FFF408AF787AC7F83890002847
:1054C0007FF402AF9AF80C0000283FF4FDAE0E20E6
:1054D000019040F29C2016ADC2F20000D0213B2288
:1054E0000123642600950296FCF774FB00287FF4E4
:1054F000E9AEBDF85800BAF8001000BAC1EB104090
:1055000000B200EE100ABDF85A00B8EEC00A9FEDD6
:10551000D54ABAF8021020EE280A9AED071A9FED34
:10552000D25A9FEDD26A00BA20EE040AC1EB1040B5
:1055300021EE051A20EE062A00B232EE011A02EE22
:10554000100AB8EEC22ABDF85C0022EE282A9AEDB5
:10555000083ABAF8041022EE04BA00BA23EE052A7B
:105560002BEE063AC1EB104033EE022A00B28AED70
:10557000082A02EE100ABDF86000B8EEC22ABAF896
:10558000063022EE282A9AED093A00BA22EE04CA21
:10559000BDF86210C3EB104023EE052A2CEE063A4C
:1055A000BAF8083000B233EE022A09BA03EE100A44
:1055B0009FEDD44ABDF86420C3EB1141B8EEC33A65
:1055C00083EE04DA08B2BAF80A1012BA03EE100A2F
:1055D000B8EEC33AC1EB1240C3EE04FA00B203EED8
:1055E000100AB8EEC33AC3EE049A9AED0A3A8AED6D
:1055F000092A23EE052A2DEE063A33EE022A9AED09
:105600000B3A8AED0A2A23EE052A8AED071A2FEEB5
:10561000863A33EE022A9AED0C3A8AED0B2A23EEF3
:10562000052A29EE863A33EE022A8AED0C2A9AEDF3
:10563000042A9AED053A21EE021A71EE03AA9AEDB8
:10564000061A2AEE822A72EE01EA10EE100ACAED5C
:1056500005AACAED06EA00F093FE41EC100B1BEE22
:10566000100A8DED100B00F08BFE41EC1B0B1CEEB5
:10567000100A00F085FE41EC1C0B1DEE100A00F034
:105680007FFE41EC1D0B1FEE900A00F079FE41EC0D
:105690001F0B19EE900A00F073FE41EC190B1AEE85
:1056A000900A00F06DFEB0EE4A8A41EC1A0B1EEE35
:1056B000900A00F065FE41EC100B9DED101B02A856
:1056C00046F2495280EC06BB28464021C0F6000253
:1056D0008DED001B8DED08FB8DED0A9B8DED0CAB68
:1056E000B0EE48AA8DED0E0BFAF77CFE82B2204692
:1056F00029460A23FEF710F9E4E500BF7B79CBB118
:10570000BD79012D16D1BA69821AB2F5487FC0F071
:105710006D804FF40072A7F8052040F23832C2F2D3
:10572000000212680023BB703B6153639363D36331
:105730001364002291420BD100293FF4FCAD002BF1
:105740007FF4F9ADD7E90350854227D2962028E0AF
:10575000FB68C7F810B08BB1A3F19605052AFD6070
:105760003FF6E9ADDFE802F004285864724200BF5A
:1057700040F23830C2F200000068D4E5CA1E012AA7
:10578000B97043D840F20112A7F8052040F2000298
:10579000C2F200021170B8612DE000BF03D96FF0B2
:1057A00095000544FD60481E04283FF6C4ADDFE8BF
:1057B00000F003333F4D1D0040F23830C2F20000CC
:1057C00000681090C0F834B0284600F0C8FC9FED87
:1057D000280B53EC102B00F0D5FC00F093FC109933
:1057E0008863CD63C1F840B0A5E500BF40F200007A
:1057F000C2F20000017840F23830C2F200000068C6
:105800000329C0F834B01AD027E000BF00291CBF1C
:105810004FF4C87038618EE540F23830C2F20000B3
:1058200000684563C0F838B0C0F83CB0056482E554
:1058300040F23830C2F200000068C0F834B04FF4D3
:105840009671C0F838B0C16373E500BF40F23830DC
:10585000C2F200000068C0F834B04FF49671816362
:1058600065E500BF0AE81C413333333F9A99993EFE
:105870005C8FC2F5285CEF3F5B494E49545D204385
:105880006865636B696E67204C4944415220636FC1
:105890006D6D756E69636174696F6E2E2E2E0D0AC3
:1058A000000000005B494E49545D204C4944415280
:1058B00020726573706F6E64656420776974682008
:1058C000256C752062797465730D0A005B494E4939
:1058D000545D204C49444152206E6F2072657370B4
:1058E0006F6E73650D0A000053797374656D2053F4
:1058F0007461727465640D0A00000000413A256409
:105900000D0A0000000003435FEA400C08BF91F05D
:10591000000F4FEA8C234FEAC12243EA51514FEA6C
:105920001C5018BF00F5F0404FEA300018BF41F09E
:1059300000415FEA6C5C00F02980BCF1FF3F08BFCA
:1059400040F080407047130C06BF12044FF0100C5B
:105950004FF0000C130E04BF12020CF1080C130FD1
:1059600004BF12010CF1040C930F04BF92000CF160
:10597000020CD30F04BF52000CF1010C11464FF082
:105980000002A0F11F00A0EB0C00704711F0004FC7
:1059900008BF704731F000413FF4D5AF0B0C06BF94
:1059A00009044FF0100C4FF0000C0B0E04BF09025D
:1059B0000CF1080C0B0F04BF09010CF1040C8B0F48
:1059C00004BF89000CF1020CCB0F04BF49000CF19D
:1059D000010CCCF1200322FA03F341EA030102FA9D
:1059E0000CF2A0EB0C0000F10100704723F07F47A0
:1059F00020F07F4C80EA030000F00040ACEB07038E
:105A000003F57C5303F1FF032DE9804909B44FEA04
:105A1000144324EA03484FEA154B25EA0B4E0FF2D4
:105A2000042606EB13273E7803FB0667C7F500073D
:105A300007FB06F64FEAD64606F102064FEA543750
:105A400007FB066CCCF1005C4FEA1C472CEA074CC4
:105A50000CFB06F507FB06F404EB15464FEA961619
:105A600049085FEA320234BF00204FF000404FEA9D
:105A7000D13706FB07FC4FEA1C4C0CFB0BF7D21B83
:105A800003FB0CF761EB07010CFB0EF7B0EB0740D3
:105A900072EB17420CFB08F734BFA2EB0742B2EBE4
:105AA000074261EB17414FEA0C444FEA910706FBAE
:105AB00007FC4FEA1C4C0CFB0BF7B0EBC74072EB3A
:105AC000573203FB0CF734BFA2EBC742B2EBC7421D
:105AD00061EB57310CFB0EF7B0EBC70072EB57725E
