:020000040800F2
:10000000000C0020B5020008054B0008DD3B00088D
:10001000014B0008850E0008E157000800000000B1
:10002000000000000000000000000000114E000869
:10003000890F000800000000094B0008254F000848
:10004000CF020008CF020008CF020008CF0200084C
:10005000CF020008CF020008CF020008CF0200083C
:10006000CF020008CF020008CF020008CF0200082C
:10007000CF020008CF020008CF020008CF0200081C
:10008000CF020008CF020008CF020008CF0200080C
:10009000CF020008CF020008CF020008CF020008FC
:1000A000CF020008CF020008CF020008CF020008EC
:1000B000CF020008CF020008CF020008CF020008DC
:1000C000CF020008CF020008CF020008CF020008CC
:1000D000CF02000819560008CF020008CF0200081E
:1000E000CF020008CF020008CF020008CF020008AC
:1000F000CF020008CF020008CF020008CF0200089C
:10010000CF020008CF020008CF020008CF0200088B
:10011000CF020008CF020008CF020008CF0200087B
:10012000CF020008590F0008650F0008CF02000831
:10013000CF0200080000000000000000CF0200080D
:10014000CF020008CF020008CF020008CF0200084B
:10015000CF020008710F00087D0F0008CF020008D1
:10016000CF020008CF020008CF020008CF0200082B
:10017000CF020008CF020008CF02000800000000F4
:1001800000000000CF020008000000000000000096
:10019000CF0200080000000000000000CF020008AD
:1001A000000000000000000000000000CF02000876
:1001B000CF020008CF020008CF020008CF020008DB
:1001C000CF02000800F002F800F065F814A696E8E7
:1001D000000CB244B344DA4501D100F05CF8BAE84F
:1001E0000F000FA696E83000A5EB040504EB060708
:1001F000AAEB0704A7F101074FEA15154FEA3414DB
:10020000A4F10104AC4201D300F045F813F0010F52
:1002100018BFFB1A43F0010300F001F8DBE71847B1
:10022000EC6500000C660000103A24BF78C878C165
:10023000FAD8520724BF30C830C144BF04680C60EC
:1002400070470000704700000023002400250026AE
:10025000103A28BF78C1FBD8520728BF30C148BF29
:100260000B607047662906F06382642900F0DA802B
:10027000752900F0D780002070471FB506F04BFAB3
:1002800000F08CFC04000020002106F07FF8E06004
:100290001FBD10B510BD00F081FD1146FFF7EDFF49
:1002A00005F0A0FA00F09FFD03B4FFF7F2FF03BCD6
:1002B00000F0E0FD0948804709480047FEE7FEE7F7
:1002C000FEE7FEE7FEE7FEE7FEE7FEE7FEE7FEE706
:1002D00004480549054A064B70470000E14F0008F5
:1002E000C501000800060020000C002000080020C6
:1002F0000008002053EA020C00F069802DE9F04B61
:100300004FF00006002B1FBFB3FA83F503FA05F484
:1003100024FA05F65E4012BF1643B2FA82F502FADD
:1003200005F4C5F120051EBF22FA05FC44EA0C04C1
:10033000203556EA044C4FEA144418BF641C4FF0B1
:1003400000084FF00009904271EB030C39D30029EB
:1003500019BFB1FA81F701FA07F6B0FA80F700FA8F
:1003600007F6C7F120071EBF20FA07FC46EA0C0675
:100370002037B6FBF4FCA7EB0507103F07F01F0B77
:10038000CBF120062CFA06F60CFA0BFB44BFB34661
:100390000026202FA4BF5E464FF0000B5BEA060C40
:1003A00008BF4FF0010B19EB0B0948EB0608ABFB3C
:1003B000027C06FB02CC0BFB03CCC01B71EB0C01D7
:1003C000C1E70B46024641464846BDE8F08B13B5EF
:1003D000084318BF4FF0FF300146AFF30080BDE87F
:1003E0001C4070470FB41CB50C0007AA009007D042
:1003F0004142A14202D32044401E01E04FF0FF30B1
:10040000074B7B4469460190069800F0ACFB002145
:10041000002C01D0009A11701CBC5DF814FB000088
:10042000870700002DE9F041064600241068752971
:10043000314616A510D0AFF30080002802DA404202
:1004400013A507E031688A0701D512A502E0490724
:1004500004D511A5012401E0AFF3008000210A2298
:1004600006F1240709E0B0FBF2FCB0FBF2F302FB5B
:100470001C00303078541846491C0028F3D123461C
:100480002A463046BDE8F04100F001B90000000006
:100490002D0000002B000000200000002DE9F04797
:1004A0004FF0000A89460446C0F820A02046E168C3
:1004B0008847002876D0252806D0D4E90121904726
:1004C000206A401C2062F1E7E16820460026884748
:1004D000C4F81CA005460027C4F818A02A2D09D08E
:1004E000284605F04BFF38B304EB8708303DC8F8C9
:1004F000185019E059F8041B204604EB870291615B
:10050000E1688847012F054618D1E069002820DA04
:1005100026F020061DE0D8F8180000EB800005EB5F
:1005200040003038C8F818002046E1688847054682
:1005300005F024FF0028EED1012F0AD02E2D08D17E
:100540002046E16888477F1C0546022F46F02006BA
:10055000C4DBA069002803DA404246F00106A0612E
:10056000F00701D026F010066C2D0AD0682D08D0B7
:100570004C2D39D06A2D35D0742D35D07A2D33D00D
:1005800016E0E1682F4620468847B84205460AD162
:100590006C2F27D04FF48060E168064320468847DF
:1005A000054605E027E06C2F1AD04FF48070064313
:1005B0000DB3A5F14100192802D8203546F4006694
:1005C0004A462946204626604E46FFF74BFE80B13C
:1005D00001280BD0F61D26F0070000F1080965E799
:1005E0004020E4E78020D7E70020D5E706F10409A2
:1005F0005CE7284661E7206ABDE8F08710B5431C38
:1006000002E010F8011B71B18107FAD14FF00132FD
:1006100002C88C1A8C4314EAC211F9D0C01A0A0617
:1006200003D0C01E10BDC01A10BD0A0401D0801E28
:1006300010BD0902FCD0401E10BD4FF0000200B5F5
:10064000134694469646203922BFA0E80C50A0E8F5
:100650000C50B1F12001BFF4F7AF090728BFA0E8A3
:100660000C5048BF0CC05DF804EB890028BF40F86F
:10067000042B08BF704748BF20F8022B11F0804FB1
:1006800018BF00F8012B70477047704770472DE97D
:10069000F0470D4699469246044600F12408016849
:1006A000880604D5E06921F01001216000E00120F6
:1006B000A84201DD471B00E00027A1697A1902EB7F
:1006C0000900081AA0612078C00602D42046AFF3C2
:1006D0000080002608E0D4E901211AF806009047BE
:1006E000206A401C761C20624E45F4DB2078C00650
:1006F0000AD52046AFF3008006E0D4E9012130207E
:100700009047206A401C2062381EA7F10107F4DCE4
:1007100007E0D4E9012118F805009047206A401C41
:100720002062281EA5F10105F3DC2046AFF300800E
:100730002078000602D50220BDE8F0870120FBE703
:100740002DE9FF4F0C461E464FF0FF378BB0D2E924
:100750000001DDF860800A908A46C1F30A5505B9A8
:100760003D46002108464FF00000BAF1000F00F4AA
:10077000400005DA00EB80004FF4400101EA500030
:100780004FEA9059B9F1010F00DDB9460A9850EAD5
:100790004A000ED044F61050A5F2FF3545432F1401
:1007A000B8F1000F1ED07542291E1EDDC9F10002EE
:1007B0001CE0B8F1010F4FF0000001D0302103E040
:1007C000F24305E02154401CB042FBDB30460022DE
:1007D000002121540B99C1F80880C1E900200FB015
:1007E000BDE8F08FBD1B6D1CDEE74A4600DA6942AA
:1007F00006A800F05DFA06AB93E8070003AB83E8B8
:10080000070050460A9905F0D9F98DE80700A0F5D0
:1008100000501F3800900398002D0ADD42F21F019E
:100820004A460844002303A90390684605F042FCA9
:1008300009E0A0F500504A461F38002303A90390A1
:10084000684605F04CFC8DE807000004000C03D05E
:100850004FF0FF30410800E01046B8F1000F03D020
:100860000022009215461EE0751E05D400F09AF98C
:10087000303262556D1EF9D5B3460122084302D0CD
:1008800000227F1C04E02078302801D100227F1E46
:10089000002A099784D01DE0112D07DA00F082F9B3
:1008A000303262556D1C50EA0102F5D1084302D086
:1008B0000098C8B10EE00021681E05E0235C625C70
:1008C00063542254401E491C8142F7DBAB46A81BEF
:1008D000401E0990002004F80B000B98099AC0F8FC
:1008E0000880C0E9002B7AE711264FF0000857E78F
:1008F0002DE9F04F88460446D21D22F0070191B041
:10090000D1E90001CDE90A0105F020FD02460B986E
:10091000C00F01D02D2007E02068810701D52B20D2
:1009200002E0202101EAC000032A099001D0072A31
:1009300005DB03464146204600F07AF90BE12078BA
:10094000800601D5E06900E00620B8F1650F814618
:1009500006D0B8F1660F18D0B8F1670F70D131E04A
:100960000020B9F1110F009001DB112301E009F122
:1009700001030AAA01A90CA8FFF7E2FEDDE90C7049
:10098000002609F10105834647E001204B4600900F
:100990004FF000470AAA01A90CA8FFF7D1FEDDE934
:1009A0000DB00C995D46002610B909F101000D1833
:1009B000B9EB050003D4C0F1FF3609F10105A5EB41
:1009C00009002BE0B9F1010F01DA4FF00109002015
:1009D000B9F1110F0090484601DD112300E00346F4
:1009E0000AAA01A90CA8FFF7ABFEDDE90C704D4681
:1009F00000268346207800070AD4AB4500DA5D461E
:100A000001A8012D04DD411911F8011C302907D07E
:100A10004F4502DA17F1040F04DA012082460FE095
:100A20006D1EEEE7002F02DCED1B3E4403E0781C58
:100A3000A84200DD7D1CB81B00F1010A4FF0004701
:100A40002078000703D4AA4501DB4FF0FF3A0021CC
:100A5000B7F1004F0DF143088DF8431024D0022068
:100A60002B23002F01DA7F422D230A21021EA0F141
:100A7000010000DC5FB197FBF1FC97FBF1F201FB99
:100A80001C7C17460CF1300C08F801CDEEE7A8F1FC
:100A9000010003702188090501D5452100E0652189
:100AA000A0F1010800F8011C09980FA9A1EB0807A3
:100AB000FF1D00B10120411901EBEA70A169384422
:100AC000081A401EA0612078C00602D42046AFF369
:100AD0000080099828B1D4E901219047206A401C80
:100AE00020622078C00622D52046AFF300801EE0A9
:100AF000002E04DBB34502DD01A8805D00E030205C
:100B0000D4E901219047206A401C2062761CAAF19A
:100B100001005FEA000A0AD100F040F8C0680168ED
:100B2000405CD4E901219047206A401C2062281EC5
:100B3000A5F10105DCDC07E0D4E9012118F8010B7F
:100B40009047206A401C2062381EA7F10107F3DCA1
:100B50002046AFF30080032011B041E601694A1C32
:100B600002610878704700B58FB0CDE901310021EE
:100B7000059105497944CDE9031011466846FFF710
:100B80008DFC0FB000BD0000E5FFFFFFD1E90023A1
:100B90009A4202D2531C0B60107070470048704795
:100BA0004000002030B5B0F10A0271F100034FEAB5
:100BB000900E4EEA817EB0EB0E0061EB91014FEAA0
:100BC000101E4EEA017E10EB0E0041EB11114FEAB0
:100BD000102E4EEA016E10EB0E0041EB11214FEA90
:100BE000104E4EEA014E10EB0E0041EB1141401841
:100BF00041F100014FEAD00040EA41704FEAD101D3
:100C00004FEA810444EA907410EB800544EB010440
:100C10006D1944EB0404521BA3414FF0000348BF7D
:100C20000A3200D530BD401C41F1000130BD00004A
:100C30002DE9F0411F46044603260168072A01F406
:100C4000006004DB08B116A505E016A503E008B1B5
:100C500015A500E015A521F010002060A069C01EB8
:100C6000A0610FB1401EA0612046AFF300804FB1DC
:100C7000D4E9012138469047206A401C2062C01CFC
:100C8000206206E0206AFAE7D4E9012115F8010B99
:100C90009047761EF8D22046AFF30080BDE8F08181
:100CA0004E414E006E616E00494E4600696E660010
:100CB0002DE9F047814616468AB0354878440DC87C
:100CC0008DE80D0032487844801C03AC0DC884E8E0
:100CD0000D0041F69B300844372190FBF1F290FB68
:100CE000F1F5A5F1800501FB12041B3C02D564421D
:100CF000012000E00020DFF898A080460027FA4499
:100D0000AAF1BE0A0EE0E0070AD03246684607EBB9
:100D1000470101230AEB810105F0E1F98DE80700A5
:100D200064107F1C002CEED1194F7F44AE3F19E0B8
:100D3000E80715D007EB04100DF1180A90E80E0033
:100D40008AE80E00C068F04201D198190890324636
:100D5000012306A903A805F0C2F903AB83E8070045
:100D60006D10641C002DE3D14FF00103324669463B
:100D7000B8F1000F03A802D005F09CF901E005F0DE
:100D8000AEF9C9E90001C9F808200AB0BDE8F0874A
:100D9000F05A000000487047200000207546FFF719
:100DA000F9FFAE4605006946534620F00700854628
:100DB00018B020B5FFF78CFABDE820404FF00006D0
:100DC0004FF000074FF000084FF0000BAC46ACE8C6
:100DD000C009ACE8C009ACE8C009ACE8C00921F022
:100DE00007018D46704710B50446AFF300802046DA
:100DF000BDE81040FFF758BA30B44FF0013C50F84E
:100E0000042B51F8043BCCFA52F4D51A20D1FCB98A
:100E100050F8042B51F8043BCCFA52F4D51A17D1F0
:100E2000B4B950F8042B51F8043BCCFA52F4D51A5B
:100E30000ED16CB950F8042B51F8043BCCFA52F4A3
:100E4000D51A05D1002CDAD030BC4FF00000704725
:100E500029BAB1FA81F111F01801D1F120008440D2
:100E6000F2D1CA40CB4012F0FF0213F0FF0330BCB6
:100E7000D01A704701491820ABBEFEE726000200D9
:100E800070470000FEE70000052888BF7047DFE8D4
:100E900000F0032B17230F4340F25830C2F200003A
:100EA0000068002141638163C1630164704700BF32
:100EB00040F25830C2F200000068002141633FE078
:100EC00040F25830C2F200000068002241638263A1
:100ED000C2630164704700BF40F25830C2F20000A4
:100EE00000680021416325E070B540F25830C2F23D
:100EF000000004680025084665630E4605F089FA7F
:100F00009FED130B53EC102B05F096FA05F054FAF5
:100F1000A063E663256470BD40F21800C2F20000D1
:100F2000027840F25830C2F2000000680021032A23
:100F3000416305D14FF496728163C26301647047C7
:100F40004FF496728263C1630164704700BF00BFB3
:100F50005C8FC2F5285CEF3F40F2FC10C2F200004B
:100F600000F03ABB40F23C10C2F2000000F034BB8B
:100F700040F25C20C2F2000000F02EBB40F29C1058
:100F8000C2F2000000F028BB7047000072B600BF3C
:100F9000FEE70000F0B581B00022009290F83C20FE
:100FA000012A03D1022001B0F0BD00BF0F68012368
:100FB0001FFA87FC80F83C304FEA4C0307EB4702EE
:100FC00013FA87F31024092F88BFA3F11E0288BFEC
:100FD0000C2403684FF0070E1E590EFA02F5AE43BB
:100FE0001E518E681D5906FA02F22A431A514968A9
:100FF000062907D801EB81014A1F194651F8345FD1
:101000000FE000BF0C2901EB810105D8A1F12302FB
:10101000194651F8305F04E0A1F14102194651F838
:101020002C5F1F26964025EA06060E600CFA02FE8B
:1010300042F2043C0A68C4F2010CACF5417642EA83
:101040000E02B3420A6005D0002180F83C10002057
:1010500001B0F0BD1221112FC1F2000118BF8F4263
:101060003AD1DCF800208F4222F48002CCF8002034
:10107000DCF8002042F40002CCF80020E4D140F279
:101080000801C2F2000109684DF68362C4F21B3206
:10109000A1FB0212910C01EB810149000091009922
:1010A0000029D1D000990139009100990029CBD0B5
:1010B00000990139009100990029C5D000990139A2
:1010C000009100990029BFD0009901390091009941
:1010D0000029E7D1B8E700BF122FB5D1DCF8001026
:1010E00021F40001CCF80010DCF8001041F480017C
:1010F000CCF80010A8E700000068C06C7047000042
:10110000002804BF0120704710B5016C00293DD0B4
:10111000016CC90645D4016C41F2021291430231BF
:1011200042F204320164C4F20102116821F4403138
:101130001160136890E812102343D0F810E0136098
:101140004A68012422F480724A604A68C0F600743A
:1011500042EA0E224A604A6822F040724A604A68B7
:1011600042EA0C024A608A6822F400628A60C2681D
:101170008B681A438A60826A8B68A24223F070638C
:101180008B608B6810D123F0405216E0044600F0CB
:1011900065F820460021616484F83C10016CC906A2
:1011A000B9D5012153E000BF1A438A608A6822F052
:1011B00040528A60C26A8B681A438A608A6822F049
:1011C00002028A608A68037E90F8204042EA430265
:1011D0008A604A6884B142F400624A604A684EF20A
:1011E000000322F460424A60426ACFF6FF734C6803
:1011F00003EB4232224301E022F400624A60CA6AF1
:1012000040F2000C22F47002CA62C3694269CFF650
:10121000F07CCC6A0CEB03532343CB628B6823F442
:1012200000738B6090F830308C6844EA43238B6005
:101230008B6823F480638B608B6843EA82228A6028
:1012400000214164026C012363F301020264002265
:1012500080F83C20BDE810400846704780B586B055
:1012600042F200010068C4F20101002288420592A6
:10127000CDE903220292019202D006B080BD00BFE8
:1012800043F630000092C4F20200436943F48073D5
:101290004361436903F480730093009B00920368E9
:1012A00043F001030360006800F001000090009823
:1012B000042001900320CDE9020201F5604001A95C
:1012C00000F084FB06B080BD70B5044600680D4692
:1012D0008268520544BF80685FEAC05038D400F08D
:1012E0004BFC21680A68920749D40646681C3CD02A
:1012F000DDB90868800721D5086880073FD40868F1
:1013000080071BD50868800739D40868800715D581
:101310000868800733D4086880070FD508688007FD
:10132000E7D52CE00868800729D400F025FC801B55
:101330002168A842F6D908688007F3D4206C40F0F1
:1013400004002064002084F83C00032070BD00BF2E
:10135000206C40F020002064002084F83C00012034
:1013600070BD00BF0868800709D40868800706D4EC
:10137000086880075CBF08685FEA8070F2D56FF08C
:1013800012000860206C40F400702064886810F03F
:10139000405F01D0002070BD207E0028FAD1C86ACD
:1013A00010F4700F02D088684005F3D4206C20F44C
:1013B00080702064206CC004ECD4206C40F00100EC
:1013C0002064002070BD000010B581B000210091A4
:1013D00090F83C10012903D1022001B010BD00BFDC
:1013E0000468012180F83C10214651F8083FDB07D2
:1013F00029D10B684DF6836243F001030B6040F284
:101400000803C2F200031B68C4F21B32A3FB0223D1
:101410009A0C02EB42020092009AA2B1009A013AA1
:101420000092009A7AB1009A013A0092009A52B161
:10143000009A013A0092009A2AB1009A013A009269
:10144000009A002AEAD10A68036CD2070CD143F053
:101450001001016400F1440101200A681043086092
:10146000002001B010BD00BF40F2017223EA020269
:1014700002F5807202646268520504D5026C012391
:1014800063F30D320264026C4FF0000E0023D204AD
:1014900044BF426C22F0060342F2043C436480F8ED
:1014A0003CE06FF02200C4F2010C2060DCF8000088
:1014B000C0060DD0ACF5417084422BD14FF60450DC
:1014C000CFF6FF705CF8000010F0405F22D125E0FD
:1014D00042F20000C4F20100844217D042F2002020
:1014E000C4F2010084420DD042F20010C4F20100A7
:1014F00084420FD1DCF80000C00607D0ACF5827042
:10150000844207D1DCF80000C00603D4086810F05C
:10151000405F03D0002001B010BD00BF4FF08040FD
:101520009BE7000070B5866D044600F025FB94F83B
:101530003510022928D105462068216C026822F066
:1015400016020260426922F08002426109B9A16C70
:1015500019B1016821F008010160016821F0010161
:10156000016000BF20680068C00715D000F004FBD0
:10157000401B0628F6D320206065032084F8350040
:10158000002184F8341070BD8020606501200021A6
:1015900084F8341070BD00BFE06D3F2101FA00F007
:1015A000B060012084F835000020002184F8341058
:1015B00070BD000090F83510022909D1052180F88E
:1015C00035100068016821F00101016000207047BA
:1015D0008021416501207047F0B581B00021009164
:1015E00040F20801C2F200010B68D0E9166148F22E
:1015F000B51537680822C1F64E358A403A42A3FB3A
:1016000005350CD003681C68640708D51C6824F0F5
:1016100004041C60B260426D42F001024265012286
:101620008A403A4208D003685B691B0604D5B26061
:10163000426D42F00202426504228A403A4208D0DA
:1016400003681B689B0704D5B260426D42F0040238
:10165000426510228A403A4219D001680B681B0784
:1016600015D5B2600B680A685B0309D4D20509D4AA
:101670000A6822F008020A60016C29B907E000BF7D
:10168000110341D4016C11B1044688472046C26D54
:10169000202101FA02F33B4243D001680F68FF06A4
:1016A0003FD5B36090F835700B68052F1CD123F03F
:1016B00016030B604B6923F080034B61036C0BB97D
:1016C000836C1BB10B6823F008030B603F21914032
:1016D000B160012180F83510016D0022002980F8E9
:1016E000342054D158E000BF0A685B0310D4D205FF
:1016F00012D40A6822F010020A60012180F8351025
:10170000002180F8341007E0816C0029BCD1BEE7CD
:10171000110301D4416C00E0C16B11B1044688474C
:101720002046416DC1B3416DC9072ED0052180F817
:1017300035100168AA0A0B6823F001030B60009BB7
:101740000133934200931AD80B68DB0717D0009B34
:1017500001339342009312D80B68DB070FD0009B34
:101760000133934200930AD80B68DB0707D0009B34
:1017700001339342009302D80B68DB07DFD10121CC
:1017800080F83510002180F83410C16C21B101B00F
:10179000BDE8F040084700BF01B0F0BD2DE9F041C1
:1017A000044600F0E9F9ECB10546022084F8350062
:1017B0000020216884F83400086820F001000860E7
:1017C00021680868C00711D000F0D6F9401B052831
:1017D000F6D9032520230320636584F83550BDE83E
:1017E000F08100BF0120BDE8F08100BF086848F229
:1017F0003F02CFF21002D4E9013500EA020C04F1F5
:101800000C0898E8C10143EA0C032B431843D4E9C0
:10181000072E304338431043626A40EA0E00042A20
:1018200040EA08031CD1206BD4E90A2E40EA0E00DE
:10183000184308604869BEF1000F20F0030040EA39
:10184000020040F0040C11D0B8F5005F36D0B8F1BA
:10185000000F45D1022A46D0012A3BD032B942E0DE
:101860000B60486920F0070040EA020C01F0F80024
:101870004AF6AB221038CAF6AA22A0FB02231A09A4
:1018800046F2E073C1F814C0C0F600039A5C40F25F
:10189000FF335F284FF03F0021EA030100FA02F016
:1018A00088BF0431C4E91612886000230125002096
:1018B000636584F83550BDE8F08100BF032AD5D8B0
:1018C000012540230120DFE802F0030E030500BFDD
:1018D00082E700BFAEF1C070B0FA80F0400904E0CA
:1018E000032A04D3C2D1CEF300600028BED0012564
:1018F00040230120636584F83550BDE8F081000085
:1019000090F834C0BCF1010F04BF0220704770B5DD
:101910004FF0010C80F834C0D0F858E090F835C092
:10192000BCF1010F38D14FF0020C80F835C04FF0F8
:10193000000CC0F854C0D0F800C08468056CC06DBD
:10194000DCF80060402C26F48026CCF80060CCF84F
:1019500004300B4604BF13460A463F2101FA00F04B
:10196000CCF80830CCF80C20CEF80800DCF80000E9
:1019700040F01600CCF800002DB1DCF8000040F07B
:101980000800CCF80000DCF8000040F00100CCF8C2
:101990000000002070BD00BF002180F8341002203C
:1019A00070BD0000B0B5044600F0E6F8054640F210
:1019B0000000C2F200000078611C18BF044400BFA0
:1019C00000F0DAF8401BA042FAD3B0BD2DE9F04F89
:1019D00083B000F1200200F13E4741F6000500927D
:1019E00007F1FF77C4F2020507224FEAB726A842A3
:1019F00008BF062200254FF000084FF00009062E10
:101A000038BF4FEAB72201920AE000BF09F101098D
:101A100008F10208B9F1100F05F1040500F0A280E9
:101A20000F68012202FA09FE17EA0E0AEED0D1F879
:101A300004C003220CF003077E1E02FA08F4012EF4
:101A40006FEA040B12D88468CE6804EA0B0406FA25
:101A500008F634438460446824EA0E06CCF300148C
:101A600004FA09F42643466004E000BF032F01D1C5
:101A700003271EE0C6688C6806EA0B0604FA08F421
:101A80002643022FC66014D16FF00302009E02EAC3
:101A9000590756F807C005F01C040F220B69A24035
:101AA0002CEA0202A3401A43F251D1F804C00CF010
:101AB0000307026807FA08F302EA0B021A431CF450
:101AC000403F0260A2D0002243F644030292C4F2D7
:101AD00002031A6843F6004442F480421A601A680E
:101AE000C4F2010402F480420292029A29F0030235
:101AF0004FF6084C2244CFF6FF7C52F80C3005F02C
:101B00000C070F26BE40B343019E06FA07F73B437E
:101B100042F80C30A2684B6842EA0A0743F60C4CC4
:101B2000DE0258BF22EA0A07A760C4F2010CDCF803
:101B300000209E0242EA0A0758BF22EA0A07CCF8B0
:101B4000007062689E0342EA0A0758BF22EA0A0749
:101B500067602268DB0342EA0A0758BF22EA0A07E5
:101B6000276053E703B0BDE8F08F0000002A08BFEC
:101B7000090481617047000040F2FC50C2F200008D
:101B800000687047002804BF01207047F0B581B09D
:101B9000044690F83D0028B9002084F83C00204617
:101BA00000F07CFA242084F83D002068016821F0D0
:101BB00001010160016841F400410160016821F404
:101BC0000041016000F050FC636848F2A16CC0F273
:101BD000010C40F60011C0F23D0163453CBF48F2E4
:101BE0008041C0F21E01884202D2012001B0F0BD46
:101BF0004DF68361C4F21B31A0FB01122168970CE2
:101C0000D1F804E04FF496762EF03F0545EA924570
:101C10004D60774348F638160D6AC0F24106A7FBBF
:101C2000067625F03F07634538BF960C721C3A4391
:101C30000A62CA6948F2A0664CF6FF77C0F2010654
:101C4000B34222EA07020BD801385B00B0FBF3F085
:101C500001306FF31F30042898BF04201BE000BF41
:101C6000A768013857B119277B43B0FBF3F0013067
:101C70006FF31F3070B100F5804007E003EB4303C2
:101C8000B0FBF3F001306FF31F3018B100F50040E6
:101C900001E000BF01201043C8610868D4E90723B0
:101CA00020F0C000104318430860886848F2FF32F3
:101CB00004F10C0790438CCF18431043A669886049
:101CC000C86820F0FF0038433043C860086840F01F
:101CD0000100086000202021206484F83D1020636A
:101CE00084F83E0001B0F0BD2DE9F04784B099467C
:101CF00016460F460446FFF73FFF94F83D10202993
:101D000027D10546206800BF816989071CD5FFF7E8
:101D100033FF411B20681A29F6D381698907F3D55F
:101D200000202021206384F83D1084F83E00206CC0
:101D300004F13C0A40F020002064022000218AF8CF
:101D4000001004B0BDE8F087A2461AF83C1F012934
:101D500004D1022004B0BDE8F08700BF01228AF858
:101D600000200368DDE90D180C9ADB0703D1036836
:101D700043F001030360036823F40063036022203F
:101D800084F83D00402084F83E0000202064626218
:101D90006185608D394620850020CFF6FF70E062B6
:101DA000204632464B46CDE9008501F019FF18B1B7
:101DB000012004B0BDE8F087208D08B3022813D0BD
:101DC000012835D121680A6822F480620A60002265
:101DD00003924A6903928A690392039A0A6842F459
:101DE00000720A602CE000BF21680A6822F4806259
:101DF0000A600A6842F400620A60002203921AE054
:101E0000002003902068416903918169039103993F
:101E1000016841F400710160202084F83D00002039
:101E200084F83E0000218AF8001004B0BDE8F08775
:101E30000021039121684A690392896903910399FA
:101E40000427C0F201070CE010690870606A218D58
:101E500001306062481E2085618D01396185010471
:101E6000DAD080B203280FD802284AD001282DD119
:101E7000204641462A4602F051F9002898D12068B0
:101E8000616A0069E1E700BF204641462A4602F048
:101E900045F900287FF48CAF2068616A00690870FA
:101EA000606A2268411C208D616201382085638D43
:101EB000013B638553695B07D1D580B20328C3D149
:101EC000106820F480601060BEE700BF20463946ED
:101ED00000224346009501F0CFFF00287FF468AF51
:101EE0002068616A026822F48062026000690870FA
:101EF000606A218D01306062481E2085608D013846
:101F000060852046394600224346009501F0B4FF23
:101F100000287FF44DAF2068616A026842F40072C5
:101F2000026000690870606A2268411C6162218D4C
:101F300001392185618D013961851169417085E71C
:101F40002DE9F04383B0994616460F460446FFF745
:101F500013FE94F83D10202924D10546206800BFC7
:101F6000816989071AD5FFF707FE411B20681A29E6
:101F7000F6D381698907F3D500202021206384F8F6
:101F80003D1084F83E00216C41F02001216484F86A
:101F90003C00022003B0BDE8F08300BF94F83C1081
:101FA000012903D1022003B0BDE8F083012284F8A7
:101FB0003C200368DDE90B180A9ADB0703D10368AC
:101FC00043F001030360036823F4006303602120EE
:101FD00084F83D00402084F83E00002020646262C6
:101FE0006185608D394620850020CFF6FF70E06264
:101FF000204632464B46CDE9008501F07BFE18B104
:10200000012003B0BDE8F083208D98B920464146F9
:102010002A4601F0D3FE88B3206C0428F0D1206852
:10202000016841F400710160012003B0BDE8F08354
:102030000004EBD0204641462A4602F0B7F80028BB
:10204000EAD1616A2268084610F8013B1361238DCA
:102050006062581E2085678D013F678557697F073D
:10206000E6D50704E4D048781061881C6062981EA9
:102070002085618D01396185DAE700BF206801683C
:1020800041F400710160202084F83D00002084F8B4
:102090003E0084F83C0003B0BDE8F083B0B586B0E4
:1020A00045F200410068C4F2000100248842059412
:1020B000CDE903440294019402D006B0B0BD00BF44
:1020C00043F630050094C4F20205286840F002008F
:1020D0002860286800F00200009000984FF44070DB
:1020E00001901220CDE90204032004900420059001
:1020F00001F5D83001A9FFF769FC0094286940F484
:1021000000102861286900F400100090009806B0C3
:10211000B0BD000040F2000040F2FC51C2F20000ED
:10212000C2F2000100780A6810440860704700009D
:1021300080B543F60040C4F20200016841F400712A
:102140000160016841F480610160016841F48071BF
:102150000160032000F088F8002000F005F800F08E
:1021600027F8002080BD000070B540F20006C2F2E2
:10217000000640F208013278C2F200014FF47A738F
:102180000968B3FBF2F20446B1FBF2F1084600F035
:10219000D3FB0F2C4FF0010508D838B94FF0FF30B2
:1021A00021460022002500F033F87460284670BDF7
:1021B00082B0002043F640010190C4F202014A6857
:1021C00042F480424A604A6802F480420192019AD5
:1021D0000090086840F080500860086800F0805067
:1021E00000900098072002B000F03EB8002848BFD9
:1021F000704700F01F01012202FA01F11C2202EADD
:10220000D0004EF20012CEF2000281507047000062
:1022100010B54EF60C5CCEF2000CDCF80030C3F3C7
:10222000022E8EF00704042C28BF0424BEF1030301
:102230004FF0FF3E0EFA04F438BF0023A14399404B
:102240000EFA03F39A43114300F00F0200F16043CA
:102250000901043A03F564436244002848BF02F1CF
:102260000C03197010BD00004EF60C51CEF20001A7
:102270000A684FF6FF031A4060F30A2242F08060BA
:1022800040F0FD700860704770B582B0002001908A
:1022900043F64000C4F202000168402641F080513C
:1022A00001600068C4F20E2600F080500190019891
:1022B00047F204050120C4F200053060FFF75CFC22
:1022C000044600BF2868C00306D4FFF755FC001B76
:1022D000B0F57A7FF6D90EE001207060FFF74CFC74
:1022E000044600BF2868800308D4FFF745FC001BA4
:1022F000B0F57A7FF6D9032002B070BD002002B09D
:1023000070BD0000002804BF012070472DE9F04196
:1023100043F60808C4F202080446D8F8F8030D464C
:1023200000F00F00814207D988F8F853D8F8F80375
:1023300000F00F00A84277D12068810717D5410728
:1023400005D5D8F8001041F4E051C8F80010010795
:1023500005D5D8F8001041F46041C8F80010D8F84D
:102360000010A26821F0F0011143C8F80010C00766
:1023700040D1D8F8F80300F00F00854207D288F862
:10238000F853D8F8F80300F00F00A8424CD12068A9
:10239000410707D5D8F80010E26821F4E051114355
:1023A000C8F80010000708D5D8F80000216920F40B
:1023B000604040EAC100C8F8000000F07DF8D8F89D
:1023C000001046F2C872C1F30311C0F60002515C5E
:1023D00040F2080220FA01F140F20400C2F20000CB
:1023E0000068C2F200021160FFF7BEFE0020BDE8E7
:1023F000F08100BF6068811E022907D258F8081CCE
:1024000089015CBF0120BDE8F08111E0012807D1FE
:1024100058F8081C89035CBF0120BDE8F08107E083
:1024200058F8081C890703D40120BDE8F08100BFDB
:10243000D8F8001021F003010843C8F80000FFF7A6
:102440009BFB064641F28837D8F80000616800F02F
:102450000C00B0EB810F8CD0FFF78EFB801BB842D5
:10246000F2D90320BDE8F08140F2080043F60801EC
:10247000C2F20000C4F202010068096846F2D87294
:10248000C1F38221C0F60002515CC84070470000D1
:1024900040F2080043F60801C2F20000C4F2020153
:1024A0000068096846F2D872C1F34231C0F60002F2
:1024B000515CC8407047000010B543F60404C4F2F4
:1024C00002046068C0F3810142F20040C0F2F400EF
:1024D000DFE801F04202081841F20020C0F27A0061
:1024E00010BD00BF216801F03F0221682368490246
:1024F000C3F3881116D4A1FB00010023FDF7FAFEF7
:1025000017E000BF216801F03F02216823684902FB
:10251000C3F3881114D4A1FB00010023FDF7EAFEE8
:1025200015E000BF41F20020C0F27A004843B0FB42
:10253000F2F021680222C1F3014102EB410109E0FE
:1025400041F20020C0F27A004843B0FBF2F021686B
:10255000C1F30271B0FBF1F010BD0000002804BF10
:10256000012070472DE9F04182B00446007843F61F
:102570000006C007C4F202060CD0B06800F00C00E0
:10258000042840F089803068800303D56068002803
:1025900000F050812078800723D5B06810F00C0F30
:1025A00011D0B06800F00C00082802D17068400219
:1025B00009D5B06800F00C000C2840F09F807068CE
:1025C000400200F19B803068800703D5E068012855
:1025D00040F030813068216920F0F80040EAC10005
:1025E00030602078000713D4207840072AD4A569EA
:1025F000002D00F01A81B06800F00C00082840F0AF
:10260000AB80012D40F0E880012002B0BDE8F081F0
:102610006069002840F20000C4F2472000F0888082
:102620000121C0F8801EFFF7A7FA0546706F8007EA
:10263000DAD4FFF7A1FA401B0228F7D9032002B031
:10264000BDE8F081306C5FEAC0080AD40020019038
:10265000306C40F080503064306C00F0805001905D
:10266000019847F20007C4F200073868C00537D464
:10267000386840F480703860FFF77EFA054600BF86
:102680003868C0052CD4FFF777FA401B0228F7D929
:10269000032002B0BDE8F081B06800F00C0008280B
:1026A00003D1706840023FF56EAFB06800F00C00D7
:1026B0000C2803D1706840023FF565AF616830684F
:1026C000B1F5803F07D0B1F5A02F40F0CB8040F4AA
:1026D00080203060306840F480303060CBE000BF54
:1026E000A168306F012905D0052957D140F00400B9
:1026F0003067306F40F00100306759E0E068002833
:1027000000F09C800020C4F2472001210160FFF707
:1027100033FA0546306880073FF55CAFFFF72CFAC7
:10272000401B02284FF00300F4D902B0BDE8F0814D
:102730000021C0F8801EFFF71FFA0546706F800762
:102740007FF552AFFFF718FA401B0228F6D9032095
:1027500002B0BDE8F08100BF0027C4F24727002087
:102760003866FFF709FA022D05460BD13068800163
:1027700040F19280FFF700FA401B02284FF003005F
:10278000F4D9D2E7306880014FD5FFF7F5F9401B47
:1027900002284FF00300F5D9C7E700BF20F0010081
:1027A0003067306F002920F00400306700F0988017
:1027B000FFF7E2F9054641F2883700BF306F800726
:1027C00000F1A080FFF7D8F9401BB842F6D90320EA
:1027D00002B0BDE8F08100BF7068E16900F48002DA
:1027E0008A4227D1216A00F03F028A4222D147F66D
:1027F000C071626A0140B1EB821F1BD1A16A4FF622
:10280000FF73C903994300F44032A1F580318A4235
:1028100010D1E16A00F07062B2EB016F0AD1216B56
:1028200000F0E040B0EB017F04D1002002B0BDE831
:10283000F08100BF012002B0BDE8F0810020C4F2A9
:10284000472000210160FFF797F9054630688007AF
:102850007FF5C7AEFFF790F9401B02284FF0030049
:10286000F4D962E720F4803030603068002920F429
:102870008020306050D0FFF77FF905463068800334
:102880003FF588AEFFF778F9401B6428F6D903209E
:1028900002B0BDE8F08100BF04F11C052FCD246B10
:1028A000084340EA8210D9034FF6FF729143A1F525
:1028B000803140EA0560084340EA047070600120FE
:1028C0003866FFF759F9044630688001ADD4FFF748
:1028D00053F9001B02284FF00300F5D925E700BF8C
:1028E000FFF74AF9054641F2883700BF306F80078D
:1028F00008D5FFF741F9401BB8424FF00300F5D966
:1029000013E700BFB8F1000F3FF571AE306C20F057
:10291000805030646BE600BFFFF72EF9054600BF1C
:10292000306880037FF536AEFFF726F9401B642838
:102930004FF00300F4D9F8E6411E0020B0EB116F10
:102940001CBF012070474EF21002CEF2000251600F
:102950004EF62351CEF20001F0230B700721906058
:102960001160704790F83C20012A4FF0020254D0C9
:1029700010B580F83D200268D2F804E0D2F808C013
:102980000C682EF07003234341F2FF74C4F200047C
:10299000A24253600EDC40F2FF73C4F200039A427D
:1029A00016DCB2F1804F2BD040F20043C4F200039A
:1029B00024E000BF40F2FF33C4F201039A4213DC6B
:1029C00041F60003C4F200039A4219D0002313E039
:1029D00040F60003C4F200039A4211D040F60043CF
:1029E000C4F200030AE000BF44F20003C4F2010392
:1029F0009A4205D040F20043C4F201039A4204D146
:102A000049682CF08003194391600121002280F86D
:102A10003D1080F83C20BDE8104010467047000093
:102A2000002804BF012070472DE9F047044690F8C4
:102A30003D000D4628B9002084F83C00204600F0F7
:102A400049F8022084F83D00206844F207028168BA
:102A500091438160211D02F0CDFA20684FF6FF7886
:102A600081688269D0F820C0D5E9003ED5E9026AC4
:102A700043EA0109AB6922EA080246EA03234FF65A
:102A8000FC46B343D5E9076742EA0A0229691A43BB
:102A900042EA062242EA01112CF0AA026B6942EADC
:102AA0000E0241EA073142EA0312C0F80890816140
:102AB0000262012084F8460084F83E0084F83F005A
:102AC00084F8420084F8430084F83D000020BDE80B
:102AD000F087000080B586B0006840F60002C4F2BE
:102AE000000200219042CDE90411CDE902110191CB
:102AF00022D0B0F1804F48D1002043F63001009041
:102B0000C4F202010A6942F001020A610A6902F094
:102B100001020092009A00900868032240F0010030
:102B200008600868012100F0010000900098002072
:102B3000C4F202001FE000BF43F630000091C4F26F
:102B40000200026942F004020261026902F004021A
:102B50000092009A00910168C02241F002010160D8
:102B60000068022100F00200009000980020C4F2EA
:102B7000020000F58060019202220292002205917B
:102B800001A9CDE90322FEF721FF06B080BD0000B8
:102B900080B590F83E2090F83F3090F842E090F8F1
:102BA00043C004290AD0B9B9012A4FF0010208BF75
:102BB000BEF1010F34D0104680BD00BF012B4FF095
:102BC000010208BFBCF1010FF5D1022180F83F10CE
:102BD00080F8431000681EE0012A4FF0010208BF90
:102BE000012BE8D1BEF1010FE5D1BCF1010FE2D11B
:102BF000022280F83E2080F83F2080F8422080F8B2
:102C0000432091B10068016A21F001010162016A6B
:102C100041F00101016210216FF0100209E000BFD4
:102C2000022180F83E1080F84210006801216FF008
:102C30000102036A1A400262026A114301620168DA
:102C4000002241F001010160104680BD90F83C3047
:102C5000012B04BF022070474FEAB202032A00F2A0
:102C6000FF802DE9F043DFE802F003B13F7F00BFB2
:102C7000036840F200461C6A1A6A24F0020422F03B
:102C800001021A621A46D3F804C052F818EF8F688E
:102C900043F48065C4F20106B54244EA070405D155
:102CA000CF6824F00C0427F004073C430F68B542BA
:102CB00006D1D1E905582CF440762E4346EA080C9B
:102CC0002EF073063743C3F804C09F614F6809694B
:102CD0005F631C629F6947F008079F619F6927F047
:102CE00004079F61B1E000BF036840F200481C6A1E
:102CF0001A6A24F4007422F480721A621A46D3F815
:102D000004C052F81CEF8F6843F48065C4F20108D8
:102D1000454544EA072408D1CF6840F2FF463F0208
:102D200024F4406427EA06063443D1F80090454570
:102D300006D1D1E905562CF440572E4347EA061C2C
:102D40002EF0730747EA0907C3F804C0DF614F6834
:102D50000969DF631C62DF6947F00807DF61DF692B
:102D600027F00407DF6170E0036840F20045D3F804
:102D700020C01A6A43F4806722F480521A621A460D
:102D80005C6852F81C8FD1F800E08E68C4F201052F
:102D9000AF4204D14D6924F4804444EA85142CF4F4
:102DA000005747EA063728F4E64646EA0E265C60F6
:102DB000DE614E6809691E641F62DF6947F40067BF
:102DC000DF61DF6927F48067DF613DE0036840F27F
:102DD00000481C6A1A6A24F0200422F010021A62C9
:102DE0001A46D3F804C052F818EF8F6843F4806590
:102DF000C4F20108454544EA071407D1CF686FF0D3
:102E0000400624F0C00406EA07163443D1F80090C7
:102E1000454506D1D1E905562CF440672E4347EAD3
:102E2000860C2EF4E64747EA0927C3F804C09F61E1
:102E30004F6809699F631C629F6947F400679F613F
:102E40009F6927F480679F61090213681943116025
:102E50000021BDE8F043002280F83C20084670477E
:102E60000121002280F83C2008467047002804BF5A
:102E70000120704710B5044690F83D0028B90020A5
:102E800084F83C00204600F01FF8022084F83D0042
:102E90002068211D02F0AEF8012084F8460084F875
:102EA0003E0084F83F0084F8400084F8410084F834
:102EB000420084F8430084F8440084F8450084F814
:102EC0003D00002010BD0000006840F20041C4F247
:102ED0000001884218BF704781B00020009043F67F
:102EE0004000C4F20200016841F002010160006884
:102EF00000F002000090009801B07047C1B10429B1
:102F000008D0082914BF41224022825C012A05D042
:102F100016E000BF3F22825C012A11D1022208295B
:102F200010D0042914BF80F8412080F83F200BE026
:102F300090F83E20012A03D1022280F83E2003E0CF
:102F40000120704780F84020006801F01F01012235
:102F5000036A02FA01F123EA01020262026A1143E2
:102F600041F2FF72C4F20002904201620CDC40F2B6
:102F7000FF71C4F20001884214DCB0F1804F37D0F9
:102F800040F2004116E000BF40F2FF31C4F20101FF
:102F9000884215DC41F60001C4F20001884227D0C6
:102FA000002115E040F60001C4F2000188421FD064
:102FB00040F60041C4F20001884219D01FE000BF72
:102FC00044F20001C4F20101884211D040F20041F4
:102FD000C4F20101884212D1416C40F2004340F436
:102FE0008062C4F2010341F400419A42416406D177
:102FF000816801F00701062904BF002070470168BD
:1030000041F001010160002070470000704700009E
:1030100070470000B0B582B001680A68CC684B699F
:1030200002F02F05202D04F0200505D125B102B0B6
:10303000BDE8B04002F0FCB95FEA027C1EBF03F0BD
:10304000010E04F4907313EB0E0341D1036BD5060C
:1030500018D5012B16D114F0100313D000220192C1
:103060000A6801924A680192019A496949064BD45B
:10307000818DC28DC38D002B18BF914240F0068216
:1030800002B0B0BD13062DD514F080032AD090F8FD
:103090004120212AF4D18268B2F5805F03D1026910
:1030A000002A00F07982026A531C036212784A6097
:1030B000C28C013A1304C284E2D1C86820F08000B7
:1030C000C860C86840F04000C86002B0B0BD00BF32
:1030D000D30718BF14F4807340F0E280530700F167
:1030E000E580EAE05206CBD514F04002C8D0CA68A9
:1030F00022F04002CA60202180F8411002B0BDE8F1
:10310000B04000F039BD00BFC26B11684B68858DBF
:1031100099B2002900F0B480A94280F0B180C38543
:10312000D169B1F5807F00F0A080016851E8031FEC
:10313000026821F4807142E80313DBB1016851E8B1
:10314000031F026821F4807142E8031393B1016800
:1031500051E8031F026821F4807142E803134BB168
:10316000016851E8031F026821F4807142E80313EB
:10317000002BDAD1016851E8051F026821F0010136
:1031800042E80513BBB3016851E8051F026821F04E
:10319000010142E8051373B3016851E8051F026895
:1031A00021F0010142E805132BB3016851E8051F26
:1031B000026821F0010142E80513002BDAD11AE080
:1031C000016851E8051F026821F0400142E805133B
:1031D000DBB1016851E8051F026821F0400142E8B7
:1031E000051393B1016851E8051F026821F0400101
:1031F00042E805134BB1016851E8051F026821F050
:10320000400142E80513002BDAD1202180F842105A
:1032100000210163016851E8031F026821F01001D9
:1032200042E80313DBB1016851E8031F026821F093
:10323000100142E8031393B1016851E8031F0268CB
:1032400021F0100142E803134BB1016851E8031F5C
:10325000026821F0100142E80313002BDAD1C16BA0
:1032600004460846FEF75EF9204602214163818D3F
:10327000C28D891A89B202B0BDE8B040FFF7C6BE60
:103280008D427FF4FDAED269B2F5807F7FF4F8AE57
:103290000222426302B0BDE8B040FFF7B7BE00BFF4
:1032A000436C43F001034364530706D5BEF1000F9E
:1032B00003D0436C43F002034364930706D5BEF189
:1032C000000F03D0436C43F004034364BCF1000FD0
:1032D00006D55EEA050303D0436C43F0080343645C
:1032E000436C002B3FF4CCAE920605D525B10446C5
:1032F00002F09EF8216820464969426C01F04001C5
:1033000002F00802891800F0B98000BF016851E896
:10331000031F026821F4907142E80313BBB30168F4
:1033200051E8031F026821F4907142E8031373B35C
:10333000016851E8031F026821F4907142E8031309
:103340002BB3016851E8031F026821F4907142E831
:103350000313002BDAD11AE0016851E8051F026857
:1033600021F0010142E80513DBB1016851E8051FB6
:10337000026821F0010142E8051393B1016851E8A8
:10338000051F026821F0010142E805134BB10168F5
:1033900051E8051F026821F0010142E80513002BE6
:1033A000DAD1016B012924D1016851E8031F0268B9
:1033B00021F0100142E80313DBB1016851E8031F5B
:1033C000026821F0100142E8031393B1016851E84B
:1033D000031F026821F0100142E803134BB101689A
:1033E00051E8031F026821F0100142E80313002B8B
:1033F000DAD1202180F84210002101630168496977
:10340000490640F1C380016851E8051F026821F0B8
:10341000400142E80513DBB1016851E8051F02686D
:1034200021F0400142E8051393B1016851E8051FFE
:10343000026821F0400142E805134BB1016851E8F0
:10344000051F026821F0400142E80513002BDAD184
:10345000C16B002900F09A8045F23112C0F60002DB
:10346000044608460A65FEF7A5F800283FF408AEB2
:10347000E06B016D02B0BDE8B04008470446FFF7BD
:10348000C7FD0020606402B0B0BD00BF891A00BF54
:10349000026852E8032F036822F4907243E8032580
:1034A000BDB3026852E8032F036822F4907243E828
:1034B000032575B3026852E8032F036822F4907263
:1034C00043E803252DB3026852E8032F036822F472
:1034D000907243E80325002DDAD11AE0026852E821
:1034E000052F036822F0010243E80525DDB10268DB
:1034F00052E8052F036822F0010243E8052595B143
:10350000026852E8052F036822F0010243E805250E
:103510004DB1026852E8052F036822F0010243E82A
:103520000525002DDAD1202280F8422000220263F6
:10353000026852E8032F036822F0100243E80325D3
:10354000DDB1026852E8032F036822F0100243E85D
:10355000032595B1026852E8032F036822F0100298
:1035600043E803254DB1026852E8032F036822F0B7
:10357000100243E80325002DDAD1022289B242630A
:1035800002B0BDE8B040FFF741BD00BF02B0BDE8EA
:10359000B040FFF73DBD00BF026A32F8023B6FF357
:1035A0005F234B60026283E5002804BF012070475F
:1035B00010B5044690F8410028B9002084F8400076
:1035C000204600F021F8242084F841002068C168DA
:1035D00021F40051C160204601F0AAFF2068016972
:1035E00021F490410161416921F02A014161C168E2
:1035F00041F40051C16000202021606484F8411032
:1036000084F84210606310BD2DE9F04387B0044692
:10361000006841F20041C4F2010100268842CDE970
:103620000566CDE9036602967AD041F20001C4F244
:103630000101884240F0DC8043F630000196C4F27C
:103640000200416946F2284841F010014161416998
:10365000C4F2020801F0100101910199019601687C
:1036600041F001010160006802A900F00100019031
:1036700001984FF4C06002900220CDE903060320B8
:103680000590072006900020C4F20200FEF79EF984
:1036900040F23C1508F11800C2F200054FF0006737
:1036A000C5E900074FF480304FF480694FF4807112
:1036B000C5E908062846C5E90266C5E90496C5E9D4
:1036C0000661FEF76BF8002818BFFDF75FFCE563A5
:1036D000AC6340F29C1508F19000C2F20005402155
:1036E000C5E9000705F1080080E842022846C5E95F
:1036F0000566C5E907666E62FEF750F8002818BF38
:10370000FDF744FC252000210022A563AC63FEF7F1
:103710007FFD2520FEF76AFD07B0BDE8F08300BFFE
:1037200043F630000196C4F20200416946F228488F
:1037300041F0200141614169C4F2020801F0200119
:10374000019101990196016841F00401016000684E
:1037500002A900F0040001900198C020029002200C
:10376000CDE9030603200590082006900020C4F24E
:10377000020000F50060FEF729F940F2FC15C2F2E4
:1037800000054FF48070C5E906604FF400304FF03B
:1037900020674FF48069C5E908062846C5E9008717
:1037A000C5E90266C5E90496FDF7F8FF002818BFD1
:1037B000FDF7ECFBE563AC6340F25C2508F17800B3
:1037C000C2F200054021C5E9000705F1080000220A
:1037D00080E806022846C5E90522C5E907226A6293
:1037E000FDF7DCFF002818BFFDF7D0FBA563AC6335
:1037F00007B0BDE8F083000070B582B090F8425089
:10380000202D0BD113460A460146002A4FF0010035
:1038100018BF002B06D102B070BD00BF022002B05D
:1038200070BD00BF002622200E638A628B854E6425
:1038300081F842000C680D46C86B45F2B92C45F280
:103840001941C0F6000CC0F60001C0E90FC145F2F5
:103850003D11C0F60001C0E91316211DFEF750F816
:1038600040B110206864202085F84200012002B099
:1038700070BD00BF01962868294602680192406821
:1038800001900198286928B3086850E8030F0A6876
:1038900040F4807042E80303E3B1086850E8030F86
:1038A0000A6840F4807042E803039BB1086850E85E
:1038B000030F0A6840F4807042E8030353B10868BC
:1038C00050E8030F0A6840F4807042E80303002BBD
:1038D000DAD100BF086850E8050F0A6840F001001F
:1038E00042E80503DBB3086850E8050F0A6840F0BA
:1038F000010042E8050393B3086850E8050F0A6821
:1039000040F0010042E805034BB3086850E8050F9A
:103910000A6840F0010042E80503002BDAD11EE0FE
:10392000086850E8050F0A6840F0400042E80503C7
:10393000FBB1086850E8050F0A6840F0400042E813
:103940000503B3B1086850E8050F0A6840F040006D
:1039500042E80503002B4FF000003FF45CAF08681D
:1039600050E8050F0A6840F0400042E80503002BCC
:10397000D6D1002002B070BD90F84230202B07D184
:1039800000294FF0010318BF002A05D118467047DF
:1039900002231846704700BF00230363816222217F
:1039A0008285C285436480F842100169006819B1BC
:1039B000C16841F48071C160416941F00101416118
:1039C000C16841F02001C1601846704740F2E831FB
:1039D000C2F20001884218BF704700F0CFB8000063
:1039E000704700002DE9F04381B0044690F8410093
:1039F000202809D100294FF0010018BF002A07D163
:103A000001B0BDE8F08300BF022001B0BDE8F08343
:103A10000020606421201D460E4684F841001746B0
:103A2000FEF7AAF8A784E784A1688146B1F5805F14
:103A300002D1206900285DD037460020E28C216841
:103A4000002A5DD06A1C24D0002D4AD0804600BFD9
:103A50000868000608D4FEF78FF8A0EB0900A8421A
:103A60007AD82168C868F3E717B117F8010B04E0AA
:103A700038F8020B00276FF35F204860E08C0138B4
:103A8000E084E08C0028E3D13AE000BF0A68120627
:103A900009D40A68120606D40A6812065CBF0A68CE
:103AA0005FEA0262F2D51FB117F8012B05E000BFF3
:103AB00030F8022B00276FF35F224A60E28C013A54
:103AC000E284E28C002AE4D11AE000BF30F8022B35
:103AD00000276FF35F224A60E28C013AE284E28CB5
:103AE00072B10A68120635D5002FEFD017F8012BF6
:103AF000F1E700BF00273046E28C2168002AA1D1FF
:103B0000086840061ED42DB3681C14D1086840060E
:103B10002AD40868400627D40868400624D40868D8
:103B200040064FF00000F1D50DE000BF2068C168ED
:103B30000068400618D4FEF71FF8A0EB0900A84261
:103B4000F4D909E00020202184F8411001B0BDE83B
:103B5000F08300BFFEF710F80320202184F8411005
:103B600001B0BDE8F08300BF0020202184F841109F
:103B700001B0BDE8F08300007047000040F2ED00A6
:103B8000C2F200000178002904BF0121017040F257
:103B90008000C2F200000078A0F13001CAB2042A0D
:103BA00011D8313840F28B52C0B2C2F20002022862
:103BB00040F28C5011704FF00001C2F2000038BF8B
:103BC0004FF4C871016040F2E83040F28001C2F267
:103BD0000000C2F200010122FFF7CEBEFEE70000A6
:103BE0002DE9F04782B0044600689A460B9D0A9E74
:103BF0000368914643F48062026002680F4642F413
:103C00008071016020464FF001110022334600957B
:103C100000F032F950B120680068C00544BF4FF48D
:103C200000702064032002B0BDE8F08740F2020873
:103C30002068C0F2010807F0FE07076120464146F0
:103C400032462B4600F0FEF920B1012002B0BDE85B
:103C5000F08700BF0020019020682A464169019149
:103C60008069314601900198204600F09FFAB0B972
:103C70002068BAF1010F09D04FEA192101612046ED
:103C800031462A4600F092FA48B920685FFA89F175
:103C90000161204631462A4600F088FA60B1206C66
:103CA0000428D2D12068016841F40071016001202C
:103CB00002B0BDE8F08700BF2068002201683346EB
:103CC00041F48071016020464FF00111009500F031
:103CD000D3F800289FD147F0010C276820464146C1
:103CE00032462B46C7F810C002B0BDE8F04700F0DE
:103CF000A9B900002DE9F04383B0044600680F46DF
:103D000001680A9D0B9E41F48071994690460160BE
:103D100020464FF0011100222B46009600F0ACF82F
:103D200050B120680068C00544BF4FF400702064A3
:103D3000032003B0BDE8F083206807F0FE010161B5
:103D40000221C0F2010120462A46334600F07AF9EA
:103D500020B1012003B0BDE8F08300BF0020029035
:103D60002068324641690291806929460290029892
:103D7000204600F01BFA58B1206C0428E9D12068D5
:103D8000016841F400710160012003B0BDE8F083D7
:103D90002068B9F1010F0AD04FEA182101612046CD
:103DA0002946324600F002FA0028E5D120685FFA81
:103DB00088F10161002003B0BDE8F08370B50368AD
:103DC000044653F8140F400711D40E46481C29D05E
:103DD00086BB00BF1868400527D4FDF7CDFE2368D9
:103DE00053F8140F400737D518684007F2D5002064
:103DF00070BD00BF18684007F9D41868400514D496
:103E000018684007F3D4186840050ED418684007B6
:103E1000EDD41868400508D4186840074FF000003A
:103E200048BF70BD18684005E4D56FF48060186025
:103E3000042012E0154603E053F8140F4007D6D4CF
:103E400018684005F1D4FDF797FE401B2368B04287
:103E5000F2D958694007EFD42020002120222163A5
:103E600084F83D2084F83E10226C10432064012029
:103E700084F83C1070BD00002DE9F0410546006853
:103E80001E46144601F47F0201338FB242D0DDF8A2
:103E90001880B2F5803F40F0878040693840C01BF1
:103EA000B0FA80F04009844240F0C8804EB924E066
:103EB00040693840C01BB0FA80F04009844240F0AD
:103EC000BD80FDF759FEA0EB08012868B142EFD98B
:103ED00041693940C91BB1FA81F149098C42E7D1E6
:103EE0009BE000BF40693840C01BB0FA80F0400939
:103EF00084424FF0000040F0A280FDF73DFE2868AC
:103F000041693940C91BB1FA81F149098C42E9D1B3
:103F100083E000BFB2F5803F24D100BF4169394042
:103F2000C91BB1FA81F149098C4240F0878041698F
:103F30003940C91BB1FA81F149098C4240F07E80B9
:103F400041693940C91BB1FA81F149098C4275D1E7
:103F500041693940C91BB1FA81F149098C42DDD070
:103F60006CE000BF81693940C91BB1FA81F1490990
:103F70008C4263D181693940C91BB1FA81F1490989
:103F80008C425BD181693940C91BB1FA81F1490981
:103F90008C4253D181693940C91BB1FA81F1490979
:103FA0008C42DFD04AE000BF80693840C01BB0FAC5
:103FB00080F04009844241D146B923E0806938400D
:103FC000C01BB0FA80F04009844237D1FDF7D4FD20
:103FD000A0EB08012868B142F0D981693940C91BBA
:103FE000B1FA81F149098C42E8D116E08069384084
:103FF000C01BB0FA80F0400984424FF0000018BFA7
:10400000BDE8F081FDF7B8FD286881693940C91B1A
:10401000B1FA81F149098C42E8D1002020212863BE
:1040200085F83D1085F83E00296C41F02001296497
:1040300085F83C000120BDE8F08100BF0020BDE80C
:10404000F0810000F0B581B0044600681D46436968
:104050008FB203EA0701B94202D1002001B0F0BDDE
:104060004169164601323CD0490512D47EB300BFE7
:10407000FDF782FD411B2068B14203D941693940F7
:10408000B9422BD141693940B942E6D0416949056D
:10409000EED5016841F4007101606FF48061416107
:1040A000042000212022216384F83D2084F83E1062
:1040B000226C1043206484F83C10012001B0F0BD54
:1040C00041693940B942C8D041694905E1D4FDF799
:1040D00053FD206841693940B942F1D02020E0E722
:1040E00041694905D5D441693940B942B5D04169E2
:1040F0004905CED441693940B942AED0416949053C
:10410000C7D441693940B942A7D041694905C0D4F3
:1041100041693940B942E3D19FE7000070B50446D8
:104120000068154650F8143F5A063DD40E4629B98A
:1041300026E000BF50F8141F490635D40168C906AF
:1041400021D4FDF719FD411B2068B142F2D9416924
:104150004906EFD400202021206384F83D1084F824
:104160003E00206C40F0200018E000BFFDF704FD89
:10417000206850F8141F4906ECD50168490613D48D
:104180000168C906F2D56FF01001016000202021FE
:10419000206384F83D1084F83E00206C20640020E9
:1041A00084F83C00012070BD002070BD70B503682C
:1041B000044653F8140F000611D40E46481C29D0AB
:1041C00086BB00BF1868400527D4FDF7D5FC2368DF
:1041D00053F8140F000637D518680006F2D50020F2
:1041E00070BD00BF18680006F9D41868400514D4E3
:1041F00018680006F3D4186840050ED41868000645
:10420000EDD41868400508D4186800064FF0000087
:1042100048BF70BD18684005E4D56FF48060186031
:10422000042012E0154603E053F8140F0006D6D41C
:1042300018684005F1D4FDF79FFC401B2368B0428D
:10424000F2D958690006EFD42020002120222163F2
:1042500084F83D2084F83E10226C10432064012035
:1042600084F83C1070BD000070B582B0FDF784FC8E
:1042700040F28806C2F2000631680446401A40F651
:10428000B931884239D340F2304542F2A550C2F2EA
:104290000005ADF806000DF1060128460222642350
:1042A000FFF7A0FB0A20FDF77DFB44F2A500ADF867
:1042B000040001A9284602226423FFF793FB4FF470
:1042C000FA70FDF76FFB42F2A500ADF802000DF1A8
:1042D0000201284602226423FFF784FB3220FDF707
:1042E00061FB40F28100C2F200000021017040F247
:1042F0008200C2F200000170346002B070BD0000A4
:104300002DE9F04F8FB0CDE903104FF0000A4FF0C8
:10431000640B0027002400254FF000094FF000082F
:10432000642617E00A9808FA80F8099809FA80F9D3
:10433000089805FA80F5079804FA80F4069807FAB9
:1043400080F705980AFA80FA0A20FDF72BFBBBF1EB
:10435000010B2DD00DF12E0000900E20019004983D
:10436000D0213B2201230296FDF7BEFC0028D9D1C3
:10437000BDF82E00BDF8301000BA000C0A9008BA43
:10438000BDF83210000C099008BABDF83610000CC8
:10439000089008BABDF83810000C079008BABDF8AC
:1043A0003A10000C069008BA000C0590BAE700BF5E
:1043B00048F21F50C5F2EB1058FB00F14A09039B6D
:1043C00002EBD171198059FB00F14A0902EBD1715E
:1043D000598055FB00F14A1102EBD17100EE101A21
:1043E0009FED171AB8EEC00A30EE010ABDEEC00A02
:1043F00010EE101A998054FB00F14A0902EBD171BA
:10440000D98057FB00F14A0902EBD1715AFB00F049
:104410001981410901EBD0704CF6CD415881002043
:10442000C3F6CC5101221A73C3E90410C3E9060094
:10443000C3E90800C3E90A0018630FB0BDE8F08FB4
:10444000000080C6B0F906109FED253A02EE101A62
:10445000B0F90810B8EEC22A04EE101AB0F90A102A
:10446000B8EEC44A05EE101AB8EEC55AB0F90030DD
:1044700082EE032A84EE034A85EE033A00EE103AF8
:104480009FED151AB8EEC00A9FED145AB0F902203C
:1044900020EE010A20EE050A80ED030A00EE102A44
:1044A000B8EEC00AB0F904C020EE010A20EE050AF9
:1044B00080ED040A00EE10CAB8EEC00A20EE010A30
:1044C00020EE050A80ED050A80ED062A80ED074AF8
:1044D00080ED083A704700BF000080380AE81C41B0
:1044E0000000034380B5B0F800C00B88B0F802E0CC
:1044F000ACEB030C4B88A2F800C0AEEB030CB0F899
:1045000004E08B88A2F802C0AEEB030CB0F806E022
:10451000CB88A2F804C0AEEB030CB0F808E00B891E
:1045200040894989AEEB0303401AA2F806C0138103
:10453000508180BD70B584B0044601250DF10F0097
:104540006426CDE900052046D0217522012302967C
:10455000FDF7CAFB9DF80F00702801D068280ED126
:1045600000208DF80E000DF10E00CDE9000520466B
:10457000D0216B2201230296FDF7E2FC002528469C
:1045800004B070BDB7EE001A91ED072A90ED036AF2
:1045900031EE401A91ED083A21EE022A90ED047AAC
:1045A00020EE066A36EE022A91ED094AD0ED050AA0
:1045B00081ED072A21EE032A20EE073A33EE022A84
:1045C00091ED0A5AD0ED061A81ED082A21EE042A4F
:1045D00020EE203A33EE022A81ED092A21EE052A47
:1045E00020EE213A33EE022A81ED0A2A91ED0B2AC0
:1045F00090ED073A21EE022A20EE033A33EE022A2A
:1046000081ED0B2A91ED0C2A90ED083A21EE021A69
:1046100020EE030A30EE010A81ED0C0A704700001B
:10462000B0B588B00C4664210E220DF11203CDE91D
:1046300000320291D0213B2201230125FDF754FBDA
:1046400010B1284608B0B0BDBDF81200BDF8141076
:1046500000BA000C208008BABDF81610000C60806B
:1046600008BABDF81A10000CA08008BABDF81C10DA
:10467000000CE08008BABDF81E10000C208108BABA
:10468000000C00256081284608B0B0BD91ED040AF9
:1046900091ED072A91ED051A22EE002A91ED063AD6
:1046A00032EE011A21EE000A30EE030A81ED051AFE
:1046B00081ED060A70470000B0B584B040F2F40006
:1046C00042F2000101230024C2F20000C4F2010101
:1046D000C0F60073012503944FF48032047680F80D
:1046E0002040C0E90A34C56180F8304080E81600F7
:1046F000C0E903444561FCF703FD002818BFFCF73F
:1047000045FC0220CDE9000540F2F400C2F20000B1
:1047100069460294FCF73EFC002818BFFCF736FC03
:1047200004B0B0BD80B582B00020019043F63000E7
:10473000C4F202000168002241F4800101600068B7
:10474000002100F48000019001983920FDF760FD00
:104750003920FDF74BFD3A2000210022FDF758FDDE
:104760003A20FDF743FD452000210022FDF750FDD2
:104770004520FDF73BFD462000210022FDF748FDC6
:10478000462002B0BDE88040FDF730BDF0B587B0EF
:10479000002643F630000696CDE90466CDE90266B0
:1047A0000196C4F202000168002441F00401016096
:1047B0000168C4F2020401F004010191019901961B
:1047C0000168002241F0800101600168202701F0AA
:1047D0008001019101990196016841F00101016098
:1047E000016801F00101019101990196016841F010
:1047F000020101600068202100F002000190019890
:104800002046FDF7B3F9082002900220CDE9030607
:1048100003200590072002AD069020462946FDF7AB
:10482000D5F80120CDE903062046294602970596D2
:10483000FDF7CCF807B0F0BD80B540F2BC2045F2E2
:104840000041C2F20000C4F2000141F680220023C0
:104850004FF4804CC0F2060280E80E00C0E9033C31
:10486000C0E90533C0E90733FDF78CF9002808BF1C
:1048700080BDBDE88040FCF789BB000080B58CB0EE
:1048800040F210300021C2F200004FF080424FF0A1
:10489000FF33C0E900210122CDE90011C0E9021374
:1048A00001618161CDE90321CDE90521CDE9071140
:1048B000CDE909210B9103A9FEF7B2F8002818BF32
:1048C000FCF764FB40F21030C2F200006946FEF7CC
:1048D00049F8002818BFFCF759FB0CB080BD000058
:1048E000F0B591B040F2004540F25830C4F20005F6
:1048F0000021C2F20000532240F2E733CDE9081153
:10490000CDE90611CDE90411C0E90052C0E9021356
:1049100001618161FEF7AAFA002818BFFCF736FB97
:1049200040F25830C2F2000008A9FEF71BF8002838
:1049300018BFFCF72BFB602001900020CDE902009E
:10494000059040F25830C2F2000001A90022FEF7A3
:104950007DF9002818BFFCF719FB40F25830C2F26D
:10496000000001A90422FEF771F9002818BFFCF726
:104970000DFB40F25830C2F2000001A90822FEF7F8
:1049800065F9002818BFFCF701FB40F25834C2F269
:10499000000401A920460C22FEF758F9002818BF90
:1049A000FCF7F4FA20680026A8421096CDE90E66BE
:1049B0000D960C9602D011B0F0BD00BF43F630004A
:1049C0000B96C4F2020001680CAC41F001010160D9
:1049D0000168022701F001010B910B990B96016808
:1049E00041F0020101600068214600F002000B90D6
:1049F0000B98C0200C9005F5FE30CDE90D76CDE981
:104A00000F67FCF7E3FF0320CDE90C0705F5003045
:104A10002146CDE90E661097FCF7D8FF11B0F0BD26
:104A200080B58CB040F2A03040F600020021C2F206
:104A30000000C4F200024FF6FF73C0E9002101221A
:104A4000CDE90011C0E9021301618161CDE90321C3
:104A5000CDE90521CDE90711CDE909210B9103A984
:104A6000FDF7DEFF002818BFFCF790FA40F2A030F7
:104A7000C2F200006946FDF775FF002818BFFCF779
:104A800085FA0CB080BD000080B540F2E83041F2FC
:104A90000001C2F20000C4F2010100234FF00C0C2F
:104AA0004FF4612280E80E00C0E90333C0E905C37A
:104AB000C361FEF779FD002808BF80BDBDE88040D6
:104AC000FCF764BA80B540F2304041F20041C2F2D6
:104AD0000000C4F2010100234FF00C0C4FF4E1225E
:104AE00080E80E00C0E90333C0E905C3C361FEF7E7
:104AF0005BFD002808BF80BDBDE88040FCF746BADA
:104B0000FEE70000FEE70000704700002DE9F04FCF
:104B100081B02DED028B9AB040F23040C2F200001D
:104B2000C06B40F280560068C2F2000641683068EF
:104B3000C1F5807440F2D807A042C2F200070BD141
:104B40007868B0F57A7F84BF002078601AB0BDEC39
:104B5000028B01B0BDE8F08F40F2804840F2880936
:104B600040F2810A9FED618AC2F20008C2F2000998
:104B7000C2F2000A07F110014FF0040B059108E0A2
:104B800040F282010020C2F2000108703068A042A9
:104B9000D6D018F800500130C0B23060FCF7ECFFFE
:104BA000C9F8000079689AF800000131012879609D
:104BB0001AD00028EAD140F28200C2F20000007848
:104BC000012863D0002871D1A52DDFD140F28200E9
:104BD000C2F200000121017040F28450C2F20000D4
:104BE000A5210170D2E700BF3878411CCAB2384411
:104BF000052A39700574C9D3B8680130B8600598C2
:104C000000F088F800286BD0F8684BF65101451C7D
:104C100045F62940CCF28F2068434FEA7000C0F27D
:104C20001E5188424FF00000FD603870AED8D7F8B2
:104C300008B000EE105A01EE10BAB8EE400AB8EE15
:104C4000411A80EE010A20EE080A10EE100A01F067
:104C5000F1FC41EC100BCDF800B00DF1180B5846EB
:104C6000502123A22B468DED020BFBF7BBFB5846D0
:104C7000FBF7C4FC82B240F2E830C2F200005946B1
:104C80000A234FF0040BFEF7ADFE7FE75A2D7FF4A9
:104C900077AF40F28200C2F200000221017040F2C0
:104CA0008450C2F200005A2141706FE740F2820343
:104CB000411CC2F20003CAB2197040F28451072AA3
:104CC000C2F200010D54FFF461AF0878A5287FF40B
:104CD00057AF48785A2804BF01208AF800004FE7F0
:104CE000D7F8110087F800B038614FE70000C842DC
:104CF0005B53414D504C455D2056616C69643A20D0
:104D0000256C752F256C752028252E3166252529C3
:104D10000D0A000002780021042A6FD382EA5203B0
:104D200013F001036AD0B0B52DED048B8CB0B0F850
:104D30000310B5EE001A00EE101AB8EE400A9FED0F
:104D4000312A20EE010AB4EE420AF1EE10FA4FF0D9
:104D500000014EDB9FED2C1AB4EE410AF1EE10FA81
:104D600047DCB0F8010040F27C45400801EE100A33
:104D70009FED233AC2F20005B8EE412A95ED001AE4
:104D800022EE038A38EE412A9FED203AB0EEC22A85
:104D9000B4EE432AF1EE10FA04DAB4EE418AF1EEF1
:104DA00010FA26DA10EE100A940801F043FC41ECE8
:104DB000190B18EE100A01F03DFC41EC100B0494A5
:104DC00046F2F67206ACC0F60002204618218DEDC0
:104DD000009B8DED020BFBF705FB82B240F2E83041
:104DE000C2F2000021460A23FEF7FCFD012185EDF9
:104DF000008A0CB0BDEC048BBDE8B040084670479B
:104E00000000803C0000484200803B46CDCCCC3DB9
:104E10007047000040F2ED00C2F200000078002868
:104E200008BF7047B0B540F2EE05C2F20005287821
:104E300090B940F20C04C2F200042046FBF7DEFBFE
:104E400082B240F2E830C2F2000021464FF47A7399
:104E5000FEF7C8FD01202870BDE8B0407047000093
:104E60002DE9F0412DED0E8BA0B00546C068D5E9C7
:104E70000467AC69884601F0DDFB41EC180B304655
:104E800001F0D8FB41EC190B384601F0D3FB41ECA3
:104E90001A0B204601F0CEFB41EC1B0BE86901F038
:104EA000C9FB41EC1C0B286A01F0C4FB41EC1D0B53
:104EB000D8E9050401F0BEFB41EC1E0B204601F0D1
:104EC000B9FB41EC100B10AC0BA2204640218DEC3D
:104ED0000E8B8DED0E0BFBF785FA82B240F2E830B7
:104EE000C2F2000021460A23FEF77CFD20B0BDEC93
:104EF0000E8BBDE8F08100BF4D3A252E31662C2582
:104F00002E31662C252E31662C252E31662C252E31
:104F100031662C252E31662C252E31662C252E311E
:104F2000660D0A00FDF7F6B810B594B007AC204640
:104F30003421FBF782FB002043F640010690CDE9C7
:104F40000400CDE902000190C4F202010A6842F0B7
:104F500080520A60096801F080510191019947F27D
:104F600000010190C4F200010A6842F440420A6064
:104F70000968012201F44041019101990221CDE922
:104F80000D1008200F90B4200A921022CDE91001D4
:104F9000204607910B92CDE91211FDF7DFFA18B107
:104FA00072B600BFFEE700BFFDF76EF910B172B632
:104FB000FEE700BF0F200290022003900020049023
:104FC0004FF4A05005904FF48050069002A80521A0
:104FD000FDF798F910B172B6FEE700BF14B010BD2E
:104FE0004EF68850CEF20000016841F47001016075
:104FF00070470000B0B540F6FF3E0568C4F2000EF1
:1050000040F2004C7045C4F2010C25DCB0F1804F39
:105010002FD040F20043C4F20003984229D040F65A
:105020000003C4F20003984223D041F6FF73C4F298
:105030000003984228DC70453ADCB0F1804F5BD029
:1050400040F20043C4F20003984255D040F60003FA
:10505000C4F200034EE000BF40F60043C4F2000378
:10506000984206D0604504D00023C4F20103984260
:10507000DBD14B6825F0700243EA020541F6FF736D
:10508000C4F200039842D6DD43F6FF73C4F2010375
:1050900098421FDC42F20003C4F2000398422BD076
:1050A0000023C4F20103984226D0604524D028E0B2
:1050B00040F60043C4F2000398421DD041F60003BD
:1050C000C4F20003984217D041F60043C4F2000333
:1050D00010E000BF44F20003C4F2010398420BD079
:1050E00044F60003C4F20103984205D044F20043A1
:1050F000C4F20103984204D1CB6825F4407243EA1C
:1051000002050A688C684B69C46240F4806482625C
:10511000644504BF09690163026825F0800142F01B
:10512000040219430260012242610160B0BD000027
:10513000806B0021C185FDF76BBF0000806B0168AB
:105140004A6990F84130212B2DD112F080022AD0EB
:105150000021C184016851E8031F026821F0C001E9
:1051600042E80313DBB1016851E8031F026821F034
:10517000C00142E8031393B1016851E8031F0268BC
:1051800021F0C00142E803134BB1016851E8031F4D
:10519000026821F0C00142E80313002BDAD120217C
:1051A00080F841100168496990F84220222A40F0B5
:1051B0007D8011F0400179D00021C185016851E85E
:1051C000031F026821F4907142E80313BBB3016826
:1051D00051E8031F026821F4907142E8031373B38E
:1051E000016851E8031F026821F4907142E803133B
:1051F0002BB3016851E8031F026821F4907142E863
:105200000313002BDAD11AE0016851E8051F026888
:1052100021F0010142E80513DBB1016851E8051FE7
:10522000026821F0010142E8051393B1016851E8D9
:10523000051F026821F0010142E805134BB1016826
:1052400051E8051F026821F0010142E80513002B17
:10525000DAD1016B012924D1016851E8031F0268EA
:1052600021F0100142E80313DBB1016851E8031F8C
:10527000026821F0100142E8031393B1016851E87C
:10528000031F026821F0100142E803134BB10168CB
:1052900051E8031F026821F0100142E80313002BBC
:1052A000DAD1202180F8421000210163416C41F0E5
:1052B00010014164FDF7ACBE0168806B0968C90547
:1052C00000F19F800021C185016851E8031F026839
:1052D00021F4807142E80313E3B1016851E8031F30
:1052E000026821F4807142E803139BB1016851E820
:1052F000031F026821F4807142E8031353B101686F
:1053000051E8031F026821F4807142E80313002B67
:10531000DAD100BF016851E8051F026821F00101E0
:1053200042E80513BBB3016851E8051F026821F08C
:10533000010142E8051373B3016851E8051F0268D3
:1053400021F0010142E805132BB3016851E8051F64
:10535000026821F0010142E80513002BDAD11AE0BE
:10536000016851E8051F026821F0400142E8051379
:10537000DBB1016851E8051F026821F0400142E8F5
:10538000051393B1016851E8051F026821F040013F
:1053900042E805134BB1016851E8051F026821F08E
:1053A000400142E80513002BDAD1202180F8421099
:1053B000016B012925D100BF016851E8031F026874
:1053C00021F0100142E80313DBB1016851E8031F2B
:1053D000026821F0100142E8031393B1016851E81B
:1053E000031F026821F0100142E803134BB101686A
:1053F00051E8031F026821F0100142E80313002B5B
:10540000DAD100214163016B012918BFFEF7DEBA32
:10541000818DFDF7FBBD0000806B01214163016BB5
:10542000012918BFFEF7DCBA818D4908FDF7EEBDF2
:1054300081B090F84210222921D183680246B3F549
:10544000805F09D152F8281F52F8183C002B63D016
:1054500003685B680AE000BF52F8281F13B90369AC
:10546000002BF5D003685B6803F07F030B701168B5
:1054700001311160C18D01390A04C18502D001B02A
:10548000704700BF0168CA6822F02002CA60CA687B
:1054900022F48072CA604A6922F001024A61202126
:1054A00080F8421000214163026B012A3CD1016364
:1054B000016851E8031F026821F0100142E803135C
:1054C000DBB1016851E8031F026821F0100142E8D6
:1054D000031393B1016851E8031F026821F0100122
:1054E00042E803134BB1016851E8031F026821F041
:1054F000100142E80313002BDAD101680A68D206D2
:1055000006D5002200920A6800924968009100992D
:10551000818D01B0FDF77ABD026852686FF35F229A
:1055200021F8022B8162A5E701B0FEF74FBA000017
:10553000B0B50446006804F108030ECB05691943B1
:1055400025F440552A4302616269E3691143C26848
:10555000194349F20C639A431143C1604169A2693E
:1055600021F4407141F20043114340F48062C4F2DF
:1055700001039A42416103D1FCF78AFF02E000BFB8
:10558000FCF772FFE1694FF69C7563681922C0F65B
:10559000FF75B1F5004FA0FB02011FD15A00DB0FD0
:1055A000FAF7A8FE48F21F51C5F2EB11A0FB012348
:1055B0005A0905F1805302FB0300322303EBC000BC
:1055C000A0FB01014FF4F87000EA111000EB02108B
:1055D000C1F34211084421688860B0BD9A009B0F56
:1055E000FAF788FE48F21F51C5F2EB11A0FB012328
:1055F0005A0902FB0500322303EB0010A0FB010156
:10560000F02000EA511000EB0210C1F343110844EE
:1056100021688860B0BD000040F2E830C2F20000AE
:10562000FDF7F8BCF0B581B0FCF7A6FA40F28404AF
:10563000C2F2000422680146801A1E28C0F0CD8004
:1056400040F28B50C2F2000040F2EF030078C2F249
:1056500000031A78216098B992B140F2F000C2F2CA
:1056600000000021016040F25830C2F200000068E2
:10567000197041638163C163016401B0F0BD00BF73
:1056800040F2784CC2F2000C9CF8004040F2945E6C
:10569000C2F2000E14B39EF80050012D1ED140F24C
:1056A0009052C2F2000212688A1AB2F5487F3FD3C4
:1056B00002228EF8002040F28C520024C2F2000236
:1056C000146040F25832C2F2000212688CF80040B6
:1056D0001C7054639463D46314640022904211D10B
:1056E00000287AD0002C78D140F2F00240F28C539E
:1056F000C2F20002C2F2000311681B68994257D23D
:10570000962358E040F2F005C2F200052E6840F200
:105710008C54C2F2000400272760FEB1A6F1960166
:105720001046296001B0BDE8F040FBF7ADBB00BFFB
:1057300040F21800C2F20000027840F25830C2F283
:10574000000000680021032A416329D14FF49672BA
:105750008163C263016401B0F0BD00BFC21ED2B25A
:10576000012A18702ED801228CF800208EF8002013
:1057700040F21802C2F20002107040F29052C2F2DF
:105780000002116040F25831C2F2000109680022A3
:1057900003284A631CD14FF496708A63C8631BE0E8
:1057A0004FF496728263C163016401B0F0BD00BF23
:1057B000B8D96FF095031944116001B0BDE8F0400D
:1057C000FBF762BB48B14FF4C870206001B0F0BD78
:1057D0004FF496708863CA630A6401B0F0BD00009C
:1057E000FEE700009EB0FCF7A3FCFFF79DFBFEF771
:1057F000CDFFFEF797FFFEF75FFFFFF73FF8FFF7DC
:105800006FF8FFF70DF9FFF73FF9FFF75BF9FFF7C7
:1058100013F840F21030C2F200003C21FDF7B8F955
:1058200040F2A030C2F200003C21FDF7B1F940F295
:105830005834C2F20004204600210027FDF75EFB29
:1058400020460421FDF75AFB20460821FDF756FBB0
:1058500020460C21FDF752FB40F2E83540F280066D
:10586000C2F20005C2F20006284631460122FEF7C8
:1058700083F86420FCF796F840F2304442F2A550D9
:10588000C2F20004ADF876000DF176012046022246
:105890006423FEF7A7F80A20FCF784F842F2A5007B
:1058A000ADF874001DA9204602226423FEF79AF881
:1058B0003220FCF777F840F28041C2F20001204626
:1058C0004FF48072FDF798FFA6F80170FCF754F9C9
:1058D000B06094A1284626226423FEF783F849F29B
:1058E000A500ADF872000DF172012046022264237A
:1058F000FEF778F86420FCF755F8E06B0068406824
:10590000B0F5807F06D140F2E830C2F200009AA1E3
:10591000192210E00DACC0F580738DA220463C2109
:10592000FAF760FD2046FAF769FE82B240F2E830ED
:10593000C2F2000021466423FEF754F840F2E8303A
:10594000C2F2000093A110226423FEF74BF840F24C
:10595000BC20C2F20000FEF7EDFDF07038B940F255
:10596000BC2006F12401C2F20000FEF7C9FC40F29F
:105970001030C2F20000006840F2A031C2F2000113
:10598000406A0968496AC6E90301FCF7F5F89FED2A
:10599000869A9FED86AA40F2955746F2E87540F246
:1059A000E83A40F2F40B9FED848AC2F20007C0F699
:1059B0000005C2F2000AC2F2000B7DA406F1240920
:1059C000C6E90500C6E90700706002E00120FBF7A8
:1059D000E9FFFCF7D1F88046FFF71CFAFFF722FE3B
:1059E000FEF742FC7069A8EB0000052803D3C6F857
:1059F0001480FFF78BF8F069A8EB000014285BD344
:105A000040F21030C2F20000006840F2A031C6F847
:105A10001C80C2F20001406A0968496AD6E9032382
:105A2000C6E90301821A00EE102ACB1AB8EEC00AAA
:105A300080EE090A01EE103AB8EEC11A81EE091A99
:105A400020EE0A0A10EE100A21EE0ABA00F0F2FD6A
:105A500041EC1C0B1BEE100A00F0ECFD41EC100BAE
:105A6000384664212A468DED00CB8DED020BFAF706
:105A7000B9FC3846FAF7C2FD82B2504639460A23CD
:105A8000FDF7B0FF5846FBF79FFC58464FF0FF313B
:105A9000FBF71AFC5846FBF72FFB034638466421F8
:105AA0002246FAF79FFC3846FAF7A8FD82B2504624
:105AB00039460A23FDF796FF306AA8EB000032282A
:105AC00084D3F078C6F8208000287FF47FAF96F862
:105AD000300000283FF47AAF40F2BC20C2F2000050
